{
    "contractName": "YearnVault",
    "abi": [
        {
            "inputs": [
                {
                    "internalType": "address",
                    "name": "_addr",
                    "type": "address"
                }
            ],
            "stateMutability": "nonpayable",
            "type": "constructor"
        },
        {
            "anonymous": false,
            "inputs": [
                {
                    "indexed": true,
                    "internalType": "address",
                    "name": "owner",
                    "type": "address"
                },
                {
                    "indexed": true,
                    "internalType": "address",
                    "name": "spender",
                    "type": "address"
                },
                {
                    "indexed": false,
                    "internalType": "uint256",
                    "name": "value",
                    "type": "uint256"
                }
            ],
            "name": "Approval",
            "type": "event"
        },
        {
            "anonymous": false,
            "inputs": [
                {
                    "indexed": true,
                    "internalType": "address",
                    "name": "from",
                    "type": "address"
                },
                {
                    "indexed": true,
                    "internalType": "address",
                    "name": "to",
                    "type": "address"
                },
                {
                    "indexed": false,
                    "internalType": "uint256",
                    "name": "value",
                    "type": "uint256"
                }
            ],
            "name": "Transfer",
            "type": "event"
        },
        {
            "inputs": [
                {
                    "internalType": "uint256",
                    "name": "_amount",
                    "type": "uint256"
                }
            ],
            "name": "_deposit",
            "outputs": [],
            "stateMutability": "nonpayable",
            "type": "function"
        },
        {
            "inputs": [
                {
                    "internalType": "uint256",
                    "name": "_shares",
                    "type": "uint256"
                }
            ],
            "name": "_withdraw",
            "outputs": [],
            "stateMutability": "nonpayable",
            "type": "function"
        },
        {
            "inputs": [],
            "name": "addr",
            "outputs": [
                {
                    "internalType": "address",
                    "name": "",
                    "type": "address"
                }
            ],
            "stateMutability": "view",
            "type": "function"
        },
        {
            "inputs": [
                {
                    "internalType": "address",
                    "name": "owner",
                    "type": "address"
                },
                {
                    "internalType": "address",
                    "name": "spender",
                    "type": "address"
                }
            ],
            "name": "allowance",
            "outputs": [
                {
                    "internalType": "uint256",
                    "name": "",
                    "type": "uint256"
                }
            ],
            "stateMutability": "view",
            "type": "function"
        },
        {
            "inputs": [
                {
                    "internalType": "address",
                    "name": "spender",
                    "type": "address"
                },
                {
                    "internalType": "uint256",
                    "name": "amount",
                    "type": "uint256"
                }
            ],
            "name": "approve",
            "outputs": [
                {
                    "internalType": "bool",
                    "name": "",
                    "type": "bool"
                }
            ],
            "stateMutability": "nonpayable",
            "type": "function"
        },
        {
            "inputs": [
                {
                    "internalType": "address",
                    "name": "account",
                    "type": "address"
                }
            ],
            "name": "balanceOf",
            "outputs": [
                {
                    "internalType": "uint256",
                    "name": "",
                    "type": "uint256"
                }
            ],
            "stateMutability": "view",
            "type": "function"
        },
        {
            "inputs": [],
            "name": "decimals",
            "outputs": [
                {
                    "internalType": "uint8",
                    "name": "",
                    "type": "uint8"
                }
            ],
            "stateMutability": "view",
            "type": "function"
        },
        {
            "inputs": [
                {
                    "internalType": "address",
                    "name": "spender",
                    "type": "address"
                },
                {
                    "internalType": "uint256",
                    "name": "subtractedValue",
                    "type": "uint256"
                }
            ],
            "name": "decreaseAllowance",
            "outputs": [
                {
                    "internalType": "bool",
                    "name": "",
                    "type": "bool"
                }
            ],
            "stateMutability": "nonpayable",
            "type": "function"
        },
        {
            "inputs": [
                {
                    "internalType": "uint256",
                    "name": "amount",
                    "type": "uint256"
                },
                {
                    "internalType": "address",
                    "name": "recipient",
                    "type": "address"
                }
            ],
            "name": "deposit",
            "outputs": [
                {
                    "internalType": "uint256",
                    "name": "",
                    "type": "uint256"
                }
            ],
            "stateMutability": "nonpayable",
            "type": "function"
        },
        {
            "inputs": [
                {
                    "internalType": "address",
                    "name": "spender",
                    "type": "address"
                },
                {
                    "internalType": "uint256",
                    "name": "addedValue",
                    "type": "uint256"
                }
            ],
            "name": "increaseAllowance",
            "outputs": [
                {
                    "internalType": "bool",
                    "name": "",
                    "type": "bool"
                }
            ],
            "stateMutability": "nonpayable",
            "type": "function"
        },
        {
            "inputs": [],
            "name": "name",
            "outputs": [
                {
                    "internalType": "string",
                    "name": "",
                    "type": "string"
                }
            ],
            "stateMutability": "view",
            "type": "function"
        },
        {
            "inputs": [
                {
                    "internalType": "address",
                    "name": "_addr",
                    "type": "address"
                }
            ],
            "name": "setAddr",
            "outputs": [],
            "stateMutability": "nonpayable",
            "type": "function"
        },
        {
            "inputs": [],
            "name": "symbol",
            "outputs": [
                {
                    "internalType": "string",
                    "name": "",
                    "type": "string"
                }
            ],
            "stateMutability": "view",
            "type": "function"
        },
        {
            "inputs": [],
            "name": "token",
            "outputs": [
                {
                    "internalType": "contract ERC20",
                    "name": "",
                    "type": "address"
                }
            ],
            "stateMutability": "view",
            "type": "function"
        },
        {
            "inputs": [],
            "name": "totalSupply",
            "outputs": [
                {
                    "internalType": "uint256",
                    "name": "",
                    "type": "uint256"
                }
            ],
            "stateMutability": "view",
            "type": "function"
        },
        {
            "inputs": [
                {
                    "internalType": "address",
                    "name": "recipient",
                    "type": "address"
                },
                {
                    "internalType": "uint256",
                    "name": "amount",
                    "type": "uint256"
                }
            ],
            "name": "transfer",
            "outputs": [
                {
                    "internalType": "bool",
                    "name": "",
                    "type": "bool"
                }
            ],
            "stateMutability": "nonpayable",
            "type": "function"
        },
        {
            "inputs": [
                {
                    "internalType": "address",
                    "name": "sender",
                    "type": "address"
                },
                {
                    "internalType": "address",
                    "name": "recipient",
                    "type": "address"
                },
                {
                    "internalType": "uint256",
                    "name": "amount",
                    "type": "uint256"
                }
            ],
            "name": "transferFrom",
            "outputs": [
                {
                    "internalType": "bool",
                    "name": "",
                    "type": "bool"
                }
            ],
            "stateMutability": "nonpayable",
            "type": "function"
        },
        {
            "inputs": [
                {
                    "internalType": "uint256",
                    "name": "_amount",
                    "type": "uint256"
                },
                {
                    "internalType": "address",
                    "name": "_destination",
                    "type": "address"
                },
                {
                    "internalType": "uint256",
                    "name": "_minUnderlying",
                    "type": "uint256"
                }
            ],
            "name": "withdraw",
            "outputs": [
                {
                    "internalType": "uint256",
                    "name": "shares",
                    "type": "uint256"
                }
            ],
            "stateMutability": "nonpayable",
            "type": "function"
        }
    ],
    "bytecode": "60806040523480156200001157600080fd5b506040516200140a3803806200140a833981016040819052620000349162000164565b6040805180820182526005808252640eca6868cb60db1b6020808401828152855180870190965292855284015281519192916200007491600391620000be565b5080516200008a906004906020840190620000be565b5050600680546001600160a01b039093166001600160a01b03199384168117909155600580549093161790915550620001d3565b828054620000cc9062000196565b90600052602060002090601f016020900481019282620000f057600085556200013b565b82601f106200010b57805160ff19168380011785556200013b565b828001600101855582156200013b579182015b828111156200013b5782518255916020019190600101906200011e565b50620001499291506200014d565b5090565b5b808211156200014957600081556001016200014e565b6000602082840312156200017757600080fd5b81516001600160a01b03811681146200018f57600080fd5b9392505050565b600181811c90821680620001ab57607f821691505b60208210811415620001cd57634e487b7160e01b600052602260045260246000fd5b50919050565b61122780620001e36000396000f3fe608060405234801561001057600080fd5b50600436106101165760003560e01c80639213b124116100a2578063ac6a2b5d11610071578063ac6a2b5d1461024d578063d1d80fdf14610260578063dd62ed3e1461029a578063e63697c8146102d3578063fc0c546a146102e657600080fd5b80639213b1241461020a57806395d89b411461021f578063a457c2d714610227578063a9059cbb1461023a57600080fd5b8063313ce567116100e9578063313ce5671461018157806339509351146101905780636e553f65146101a357806370a08231146101b6578063767800de146101df57600080fd5b806306fdde031461011b578063095ea7b31461013957806318160ddd1461015c57806323b872dd1461016e575b600080fd5b6101236102f9565b60405161013091906110db565b60405180910390f35b61014c610147366004611015565b61038b565b6040519015158152602001610130565b6002545b604051908152602001610130565b61014c61017c366004610fd9565b6103a1565b60405160128152602001610130565b61014c61019e366004611015565b610450565b6101606101b1366004611093565b61048c565b6101606101c4366004610f8b565b6001600160a01b031660009081526020819052604090205490565b6006546101f2906001600160a01b031681565b6040516001600160a01b039091168152602001610130565b61021d610218366004611061565b61053a565b005b610123610729565b61014c610235366004611015565b610738565b61014c610248366004611015565b6107d1565b61021d61025b366004611061565b6107de565b61021d61026e366004610f8b565b600680546001600160a01b039092166001600160a01b0319928316811790915560058054909216179055565b6101606102a8366004610fa6565b6001600160a01b03918216600090815260016020908152604080832093909416825291909152205490565b6101606102e13660046110b6565b6109b0565b6005546101f2906001600160a01b031681565b606060038054610308906111a0565b80601f0160208091040260200160405190810160405280929190818152602001828054610334906111a0565b80156103815780601f1061035657610100808354040283529160200191610381565b820191906000526020600020905b81548152906001019060200180831161036457829003601f168201915b5050505050905090565b6000610398338484610a57565b50600192915050565b60006103ae848484610b7c565b6001600160a01b0384166000908152600160209081526040808320338452909152902054828110156104385760405162461bcd60e51b815260206004820152602860248201527f45524332303a207472616e7366657220616d6f756e74206578636565647320616044820152676c6c6f77616e636560c01b60648201526084015b60405180910390fd5b6104458533858403610a57565b506001949350505050565b3360008181526001602090815260408083206001600160a01b03871684529091528120549091610398918590610487908690611130565b610a57565b6005546040516323b872dd60e01b81526001600160a01b0383811660048301523060248301526044820185905260009216906323b872dd90606401602060405180830381600087803b1580156104e157600080fd5b505af11580156104f5573d6000803e3d6000fd5b505050506040513d601f19601f82011682018060405250810190610519919061103f565b506000610527600285611148565b90506105338382610d4a565b9392505050565b306000908152602081905260408120546005546040516370a0823160e01b81523060048201529192506000916001600160a01b03909116906370a082319060240160206040518083038186803b15801561059357600080fd5b505afa1580156105a7573d6000803e3d6000fd5b505050506040513d601f19601f820116820180604052508101906105cb919061107a565b6005546040516323b872dd60e01b8152336004820152306024820152604481018690529192506001600160a01b0316906323b872dd90606401602060405180830381600087803b15801561061e57600080fd5b505af1158015610632573d6000803e3d6000fd5b505050506040513d601f19601f82011682018060405250810190610656919061103f565b506005546040516370a0823160e01b81523060048201526000916001600160a01b0316906370a082319060240160206040518083038186803b15801561069b57600080fd5b505afa1580156106af573d6000803e3d6000fd5b505050506040513d601f19601f820116820180604052508101906106d3919061107a565b90506106df8282611189565b935060006106ec60025490565b6106f7575083610718565b8361070160025490565b61070b908761116a565b6107159190611148565b90505b6107223382610d4a565b5050505050565b606060048054610308906111a0565b3360009081526001602090815260408083206001600160a01b0386168452909152812054828110156107ba5760405162461bcd60e51b815260206004820152602560248201527f45524332303a2064656372656173656420616c6c6f77616e63652062656c6f77604482015264207a65726f60d81b606482015260840161042f565b6107c73385858403610a57565b5060019392505050565b6000610398338484610b7c565b60006107e960025490565b3060009081526020819052604090205461080490849061116a565b61080e9190611148565b905061081a3383610e29565b6005546040516370a0823160e01b81523060048201526000916001600160a01b0316906370a082319060240160206040518083038186803b15801561085e57600080fd5b505afa158015610872573d6000803e3d6000fd5b505050506040513d601f19601f82011682018060405250810190610896919061107a565b9050818110156109265760055460405163a9059cbb60e01b8152336004820152602481018490526001600160a01b039091169063a9059cbb90604401602060405180830381600087803b1580156108ec57600080fd5b505af1158015610900573d6000803e3d6000fd5b505050506040513d601f19601f82011682018060405250810190610924919061103f565b505b60055460405163a9059cbb60e01b8152336004820152602481018490526001600160a01b039091169063a9059cbb90604401602060405180830381600087803b15801561097257600080fd5b505af1158015610986573d6000803e3d6000fd5b505050506040513d601f19601f820116820180604052508101906109aa919061103f565b50505050565b60006109bd600285611148565b90506109c98385610e29565b60055460405163a9059cbb60e01b81526001600160a01b038581166004830152602482018790529091169063a9059cbb90604401602060405180830381600087803b158015610a1757600080fd5b505af1158015610a2b573d6000803e3d6000fd5b505050506040513d601f19601f82011682018060405250810190610a4f919061103f565b509392505050565b6001600160a01b038316610ab95760405162461bcd60e51b8152602060048201526024808201527f45524332303a20617070726f76652066726f6d20746865207a65726f206164646044820152637265737360e01b606482015260840161042f565b6001600160a01b038216610b1a5760405162461bcd60e51b815260206004820152602260248201527f45524332303a20617070726f766520746f20746865207a65726f206164647265604482015261737360f01b606482015260840161042f565b6001600160a01b0383811660008181526001602090815260408083209487168084529482529182902085905590518481527f8c5be1e5ebec7d5bd14f71427d1e84f3dd0314c0f7b2291e5b200ac8c7c3b92591015b60405180910390a3505050565b6001600160a01b038316610be05760405162461bcd60e51b815260206004820152602560248201527f45524332303a207472616e736665722066726f6d20746865207a65726f206164604482015264647265737360d81b606482015260840161042f565b6001600160a01b038216610c425760405162461bcd60e51b815260206004820152602360248201527f45524332303a207472616e7366657220746f20746865207a65726f206164647260448201526265737360e81b606482015260840161042f565b6001600160a01b03831660009081526020819052604090205481811015610cba5760405162461bcd60e51b815260206004820152602660248201527f45524332303a207472616e7366657220616d6f756e7420657863656564732062604482015265616c616e636560d01b606482015260840161042f565b6001600160a01b03808516600090815260208190526040808220858503905591851681529081208054849290610cf1908490611130565b92505081905550826001600160a01b0316846001600160a01b03167fddf252ad1be2c89b69c2b068fc378daa952ba7f163c4a11628f55a4df523b3ef84604051610d3d91815260200190565b60405180910390a36109aa565b6001600160a01b038216610da05760405162461bcd60e51b815260206004820152601f60248201527f45524332303a206d696e7420746f20746865207a65726f206164647265737300604482015260640161042f565b8060026000828254610db29190611130565b90915550506001600160a01b03821660009081526020819052604081208054839290610ddf908490611130565b90915550506040518181526001600160a01b038316906000907fddf252ad1be2c89b69c2b068fc378daa952ba7f163c4a11628f55a4df523b3ef9060200160405180910390a35050565b6001600160a01b038216610e895760405162461bcd60e51b815260206004820152602160248201527f45524332303a206275726e2066726f6d20746865207a65726f206164647265736044820152607360f81b606482015260840161042f565b6001600160a01b03821660009081526020819052604090205481811015610efd5760405162461bcd60e51b815260206004820152602260248201527f45524332303a206275726e20616d6f756e7420657863656564732062616c616e604482015261636560f01b606482015260840161042f565b6001600160a01b0383166000908152602081905260408120838303905560028054849290610f2c908490611189565b90915550506040518281526000906001600160a01b038516907fddf252ad1be2c89b69c2b068fc378daa952ba7f163c4a11628f55a4df523b3ef90602001610b6f565b80356001600160a01b0381168114610f8657600080fd5b919050565b600060208284031215610f9d57600080fd5b61053382610f6f565b60008060408385031215610fb957600080fd5b610fc283610f6f565b9150610fd060208401610f6f565b90509250929050565b600080600060608486031215610fee57600080fd5b610ff784610f6f565b925061100560208501610f6f565b9150604084013590509250925092565b6000806040838503121561102857600080fd5b61103183610f6f565b946020939093013593505050565b60006020828403121561105157600080fd5b8151801515811461053357600080fd5b60006020828403121561107357600080fd5b5035919050565b60006020828403121561108c57600080fd5b5051919050565b600080604083850312156110a657600080fd5b82359150610fd060208401610f6f565b6000806000606084860312156110cb57600080fd5b8335925061100560208501610f6f565b600060208083528351808285015260005b81811015611108578581018301518582016040015282016110ec565b8181111561111a576000604083870101525b50601f01601f1916929092016040019392505050565b60008219821115611143576111436111db565b500190565b60008261116557634e487b7160e01b600052601260045260246000fd5b500490565b6000816000190483118215151615611184576111846111db565b500290565b60008282101561119b5761119b6111db565b500390565b600181811c908216806111b457607f821691505b602082108114156111d557634e487b7160e01b600052602260045260246000fd5b50919050565b634e487b7160e01b600052601160045260246000fdfea26469706673582212208cc24ca051863ee91e20bf15cb8195f2b08b26a795b5d95a375563aaa6c577ba64736f6c63430008070033",
    "sourcePath": "d:/Code/Conflux-UMA/YearnVault/contracts/YearnVault.sol",
    "compiler": {
        "name": "solc",
        "version": "0.8.7+commit.e28d00a7"
    },
    "functionHashes": {
        "_deposit(uint256)": "9213b124",
        "_withdraw(uint256)": "ac6a2b5d",
        "addr()": "767800de",
        "allowance(address,address)": "dd62ed3e",
        "approve(address,uint256)": "095ea7b3",
        "balanceOf(address)": "70a08231",
        "decimals()": "313ce567",
        "decreaseAllowance(address,uint256)": "a457c2d7",
        "deposit(uint256,address)": "6e553f65",
        "increaseAllowance(address,uint256)": "39509351",
        "name()": "06fdde03",
        "setAddr(address)": "d1d80fdf",
        "symbol()": "95d89b41",
        "token()": "fc0c546a",
        "totalSupply()": "18160ddd",
        "transfer(address,uint256)": "a9059cbb",
        "transferFrom(address,address,uint256)": "23b872dd",
        "withdraw(uint256,address,uint256)": "e63697c8"
    },
    "gasEstimates": {
        "creation": {
            "codeDepositCost": "929400",
            "executionCost": "infinite",
            "totalCost": "infinite"
        },
        "external": {
            "_deposit(uint256)": "infinite",
            "_withdraw(uint256)": "infinite",
            "addr()": "2448",
            "allowance(address,address)": "infinite",
            "approve(address,uint256)": "24643",
            "balanceOf(address)": "2629",
            "decimals()": "200",
            "decreaseAllowance(address,uint256)": "26956",
            "deposit(uint256,address)": "infinite",
            "increaseAllowance(address,uint256)": "26980",
            "name()": "infinite",
            "setAddr(address)": "48824",
            "symbol()": "infinite",
            "token()": "2447",
            "totalSupply()": "2349",
            "transfer(address,uint256)": "51266",
            "transferFrom(address,address,uint256)": "infinite",
            "withdraw(uint256,address,uint256)": "infinite"
        }
    }
}