{
  "contractName": "YearnVault",
  "abi": [
    {
      "inputs": [
        {
          "internalType": "address",
          "name": "_addr",
          "type": "address"
        }
      ],
      "stateMutability": "nonpayable",
      "type": "constructor"
    },
    {
      "anonymous": false,
      "inputs": [
        {
          "indexed": true,
          "internalType": "address",
          "name": "owner",
          "type": "address"
        },
        {
          "indexed": true,
          "internalType": "address",
          "name": "spender",
          "type": "address"
        },
        {
          "indexed": false,
          "internalType": "uint256",
          "name": "value",
          "type": "uint256"
        }
      ],
      "name": "Approval",
      "type": "event"
    },
    {
      "anonymous": false,
      "inputs": [
        {
          "indexed": true,
          "internalType": "address",
          "name": "from",
          "type": "address"
        },
        {
          "indexed": true,
          "internalType": "address",
          "name": "to",
          "type": "address"
        },
        {
          "indexed": false,
          "internalType": "uint256",
          "name": "value",
          "type": "uint256"
        }
      ],
      "name": "Transfer",
      "type": "event"
    },
    {
      "inputs": [],
      "name": "addr",
      "outputs": [
        {
          "internalType": "address",
          "name": "",
          "type": "address"
        }
      ],
      "stateMutability": "view",
      "type": "function"
    },
    {
      "inputs": [
        {
          "internalType": "address",
          "name": "owner",
          "type": "address"
        },
        {
          "internalType": "address",
          "name": "spender",
          "type": "address"
        }
      ],
      "name": "allowance",
      "outputs": [
        {
          "internalType": "uint256",
          "name": "",
          "type": "uint256"
        }
      ],
      "stateMutability": "view",
      "type": "function"
    },
    {
      "inputs": [
        {
          "internalType": "address",
          "name": "spender",
          "type": "address"
        },
        {
          "internalType": "uint256",
          "name": "amount",
          "type": "uint256"
        }
      ],
      "name": "approve",
      "outputs": [
        {
          "internalType": "bool",
          "name": "",
          "type": "bool"
        }
      ],
      "stateMutability": "nonpayable",
      "type": "function"
    },
    {
      "inputs": [
        {
          "internalType": "address",
          "name": "account",
          "type": "address"
        }
      ],
      "name": "balanceOf",
      "outputs": [
        {
          "internalType": "uint256",
          "name": "",
          "type": "uint256"
        }
      ],
      "stateMutability": "view",
      "type": "function"
    },
    {
      "inputs": [],
      "name": "decimals",
      "outputs": [
        {
          "internalType": "uint8",
          "name": "",
          "type": "uint8"
        }
      ],
      "stateMutability": "view",
      "type": "function"
    },
    {
      "inputs": [
        {
          "internalType": "address",
          "name": "spender",
          "type": "address"
        },
        {
          "internalType": "uint256",
          "name": "subtractedValue",
          "type": "uint256"
        }
      ],
      "name": "decreaseAllowance",
      "outputs": [
        {
          "internalType": "bool",
          "name": "",
          "type": "bool"
        }
      ],
      "stateMutability": "nonpayable",
      "type": "function"
    },
    {
      "inputs": [
        {
          "internalType": "address",
          "name": "spender",
          "type": "address"
        },
        {
          "internalType": "uint256",
          "name": "addedValue",
          "type": "uint256"
        }
      ],
      "name": "increaseAllowance",
      "outputs": [
        {
          "internalType": "bool",
          "name": "",
          "type": "bool"
        }
      ],
      "stateMutability": "nonpayable",
      "type": "function"
    },
    {
      "inputs": [],
      "name": "name",
      "outputs": [
        {
          "internalType": "string",
          "name": "",
          "type": "string"
        }
      ],
      "stateMutability": "view",
      "type": "function"
    },
    {
      "inputs": [],
      "name": "symbol",
      "outputs": [
        {
          "internalType": "string",
          "name": "",
          "type": "string"
        }
      ],
      "stateMutability": "view",
      "type": "function"
    },
    {
      "inputs": [],
      "name": "totalSupply",
      "outputs": [
        {
          "internalType": "uint256",
          "name": "",
          "type": "uint256"
        }
      ],
      "stateMutability": "view",
      "type": "function"
    },
    {
      "inputs": [
        {
          "internalType": "address",
          "name": "recipient",
          "type": "address"
        },
        {
          "internalType": "uint256",
          "name": "amount",
          "type": "uint256"
        }
      ],
      "name": "transfer",
      "outputs": [
        {
          "internalType": "bool",
          "name": "",
          "type": "bool"
        }
      ],
      "stateMutability": "nonpayable",
      "type": "function"
    },
    {
      "inputs": [
        {
          "internalType": "address",
          "name": "sender",
          "type": "address"
        },
        {
          "internalType": "address",
          "name": "recipient",
          "type": "address"
        },
        {
          "internalType": "uint256",
          "name": "amount",
          "type": "uint256"
        }
      ],
      "name": "transferFrom",
      "outputs": [
        {
          "internalType": "bool",
          "name": "",
          "type": "bool"
        }
      ],
      "stateMutability": "nonpayable",
      "type": "function"
    },
    {
      "inputs": [],
      "name": "underlyToken",
      "outputs": [
        {
          "internalType": "contract ERC20",
          "name": "",
          "type": "address"
        }
      ],
      "stateMutability": "view",
      "type": "function"
    },
    {
      "inputs": [
        {
          "internalType": "address",
          "name": "_addr",
          "type": "address"
        }
      ],
      "name": "setAddr",
      "outputs": [],
      "stateMutability": "nonpayable",
      "type": "function"
    },
    {
      "inputs": [],
      "name": "show",
      "outputs": [
        {
          "internalType": "uint256",
          "name": "",
          "type": "uint256"
        }
      ],
      "stateMutability": "view",
      "type": "function"
    },
    {
      "inputs": [
        {
          "internalType": "uint256",
          "name": "amount",
          "type": "uint256"
        },
        {
          "internalType": "address",
          "name": "recipient",
          "type": "address"
        }
      ],
      "name": "deposit",
      "outputs": [
        {
          "internalType": "uint256",
          "name": "",
          "type": "uint256"
        }
      ],
      "stateMutability": "nonpayable",
      "type": "function"
    },
    {
      "inputs": [
        {
          "internalType": "uint256",
          "name": "_amount",
          "type": "uint256"
        },
        {
          "internalType": "address",
          "name": "_destination",
          "type": "address"
        },
        {
          "internalType": "uint256",
          "name": "_minUnderlying",
          "type": "uint256"
        }
      ],
      "name": "withdraw",
      "outputs": [
        {
          "internalType": "uint256",
          "name": "shares",
          "type": "uint256"
        }
      ],
      "stateMutability": "nonpayable",
      "type": "function"
    }
  ],
  "bytecode": "0x60806040523480156200001157600080fd5b5060405162002540380380620025408339818101604052810190620000379190620003e0565b6040518060400160405280600581526020017f76534346580000000000000000000000000000000000000000000000000000008152506040518060400160405280600581526020017f76534346580000000000000000000000000000000000000000000000000000008152506127108260039080519060200190620000be92919062000319565b508160049080519060200190620000d792919062000319565b50620000f9620000ec620001a760201b60201c565b82620001af60201b60201c565b50505080600660006101000a81548173ffffffffffffffffffffffffffffffffffffffff021916908373ffffffffffffffffffffffffffffffffffffffff160217905550600660009054906101000a900473ffffffffffffffffffffffffffffffffffffffff16600560006101000a81548173ffffffffffffffffffffffffffffffffffffffff021916908373ffffffffffffffffffffffffffffffffffffffff16021790555050620005f8565b600033905090565b600073ffffffffffffffffffffffffffffffffffffffff168273ffffffffffffffffffffffffffffffffffffffff16141562000222576040517f08c379a000000000000000000000000000000000000000000000000000000000815260040162000219906200045f565b60405180910390fd5b62000236600083836200031460201b60201c565b80600260008282546200024a9190620004af565b92505081905550806000808473ffffffffffffffffffffffffffffffffffffffff1673ffffffffffffffffffffffffffffffffffffffff1681526020019081526020016000206000828254620002a19190620004af565b925050819055508173ffffffffffffffffffffffffffffffffffffffff16600073ffffffffffffffffffffffffffffffffffffffff167fddf252ad1be2c89b69c2b068fc378daa952ba7f163c4a11628f55a4df523b3ef8360405162000308919062000481565b60405180910390a35050565b505050565b82805462000327906200054a565b90600052602060002090601f0160209004810192826200034b576000855562000397565b82601f106200036657805160ff191683800117855562000397565b8280016001018555821562000397579182015b828111156200039657825182559160200191906001019062000379565b5b509050620003a69190620003aa565b5090565b5b80821115620003c5576000816000905550600101620003ab565b5090565b600081519050620003da81620005de565b92915050565b600060208284031215620003f357600080fd5b60006200040384828501620003c9565b91505092915050565b60006200041b601f836200049e565b91507f45524332303a206d696e7420746f20746865207a65726f2061646472657373006000830152602082019050919050565b620004598162000540565b82525050565b600060208201905081810360008301526200047a816200040c565b9050919050565b60006020820190506200049860008301846200044e565b92915050565b600082825260208201905092915050565b6000620004bc8262000540565b9150620004c98362000540565b9250827fffffffffffffffffffffffffffffffffffffffffffffffffffffffffffffffff0382111562000501576200050062000580565b5b828201905092915050565b6000620005198262000520565b9050919050565b600073ffffffffffffffffffffffffffffffffffffffff82169050919050565b6000819050919050565b600060028204905060018216806200056357607f821691505b602082108114156200057a5762000579620005af565b5b50919050565b7f4e487b7100000000000000000000000000000000000000000000000000000000600052601160045260246000fd5b7f4e487b7100000000000000000000000000000000000000000000000000000000600052602260045260246000fd5b620005e9816200050c565b8114620005f557600080fd5b50565b611f3880620006086000396000f3fe608060405234801561001057600080fd5b506004361061010b5760003560e01c8063767800de116100a2578063a9059cbb11610071578063a9059cbb146102e4578063cc80f6f314610314578063d1d80fdf14610332578063dd62ed3e1461034e578063e63697c81461037e5761010b565b8063767800de1461025a57806395d89b4114610278578063a3b921e214610296578063a457c2d7146102b45761010b565b8063313ce567116100de578063313ce567146101ac57806339509351146101ca5780636e553f65146101fa57806370a082311461022a5761010b565b806306fdde0314610110578063095ea7b31461012e57806318160ddd1461015e57806323b872dd1461017c575b600080fd5b6101186103ae565b6040516101259190611a78565b60405180910390f35b61014860048036038101906101439190611454565b610440565b6040516101559190611a42565b60405180910390f35b61016661045e565b6040516101739190611bda565b60405180910390f35b61019660048036038101906101919190611405565b610468565b6040516101a39190611a42565b60405180910390f35b6101b4610569565b6040516101c19190611bf5565b60405180910390f35b6101e460048036038101906101df9190611454565b610572565b6040516101f19190611a42565b60405180910390f35b610214600480360381019061020f91906114e2565b61061e565b6040516102219190611bda565b60405180910390f35b610244600480360381019061023f91906113a0565b6106ee565b6040516102519190611bda565b60405180910390f35b610262610736565b60405161026f91906119c7565b60405180910390f35b61028061075c565b60405161028d9190611a78565b60405180910390f35b61029e6107ee565b6040516102ab9190611a5d565b60405180910390f35b6102ce60048036038101906102c99190611454565b610814565b6040516102db9190611a42565b60405180910390f35b6102fe60048036038101906102f99190611454565b610908565b60405161030b9190611a42565b60405180910390f35b61031c610926565b6040516103299190611bda565b60405180910390f35b61034c600480360381019061034791906113a0565b6109cd565b005b610368600480360381019061036391906113c9565b610a74565b6040516103759190611bda565b60405180910390f35b6103986004803603810190610393919061151e565b610afb565b6040516103a59190611bda565b60405180910390f35b6060600380546103bd90611ded565b80601f01602080910402602001604051908101604052809291908181526020018280546103e990611ded565b80156104365780601f1061040b57610100808354040283529160200191610436565b820191906000526020600020905b81548152906001019060200180831161041957829003601f168201915b5050505050905090565b600061045461044d610bcd565b8484610bd5565b6001905092915050565b6000600254905090565b6000610475848484610da0565b6000600160008673ffffffffffffffffffffffffffffffffffffffff1673ffffffffffffffffffffffffffffffffffffffff16815260200190815260200160002060006104c0610bcd565b73ffffffffffffffffffffffffffffffffffffffff1673ffffffffffffffffffffffffffffffffffffffff16815260200190815260200160002054905082811015610540576040517f08c379a000000000000000000000000000000000000000000000000000000000815260040161053790611b1a565b60405180910390fd5b61055d8561054c610bcd565b85846105589190611d0d565b610bd5565b60019150509392505050565b60006012905090565b600061061461057f610bcd565b84846001600061058d610bcd565b73ffffffffffffffffffffffffffffffffffffffff1673ffffffffffffffffffffffffffffffffffffffff16815260200190815260200160002060008873ffffffffffffffffffffffffffffffffffffffff1673ffffffffffffffffffffffffffffffffffffffff1681526020019081526020016000205461060f9190611c2c565b610bd5565b6001905092915050565b6000600560009054906101000a900473ffffffffffffffffffffffffffffffffffffffff1673ffffffffffffffffffffffffffffffffffffffff166323b872dd8330866040518463ffffffff1660e01b815260040161067f939291906119e2565b602060405180830381600087803b15801561069957600080fd5b505af11580156106ad573d6000803e3d6000fd5b505050506040513d601f19601f820116820180604052508101906106d19190611490565b506106e8826002856106e39190611c82565b61101f565b92915050565b60008060008373ffffffffffffffffffffffffffffffffffffffff1673ffffffffffffffffffffffffffffffffffffffff168152602001908152602001600020549050919050565b600660009054906101000a900473ffffffffffffffffffffffffffffffffffffffff1681565b60606004805461076b90611ded565b80601f016020809104026020016040519081016040528092919081815260200182805461079790611ded565b80156107e45780601f106107b9576101008083540402835291602001916107e4565b820191906000526020600020905b8154815290600101906020018083116107c757829003601f168201915b5050505050905090565b600560009054906101000a900473ffffffffffffffffffffffffffffffffffffffff1681565b60008060016000610823610bcd565b73ffffffffffffffffffffffffffffffffffffffff1673ffffffffffffffffffffffffffffffffffffffff16815260200190815260200160002060008573ffffffffffffffffffffffffffffffffffffffff1673ffffffffffffffffffffffffffffffffffffffff168152602001908152602001600020549050828110156108e0576040517f08c379a00000000000000000000000000000000000000000000000000000000081526004016108d790611b9a565b60405180910390fd5b6108fd6108eb610bcd565b8585846108f89190611d0d565b610bd5565b600191505092915050565b600061091c610915610bcd565b8484610da0565b6001905092915050565b6000600560009054906101000a900473ffffffffffffffffffffffffffffffffffffffff1673ffffffffffffffffffffffffffffffffffffffff166318160ddd6040518163ffffffff1660e01b815260040160206040518083038186803b15801561099057600080fd5b505afa1580156109a4573d6000803e3d6000fd5b505050506040513d601f19601f820116820180604052508101906109c891906114b9565b905090565b80600660006101000a81548173ffffffffffffffffffffffffffffffffffffffff021916908373ffffffffffffffffffffffffffffffffffffffff160217905550600660009054906101000a900473ffffffffffffffffffffffffffffffffffffffff16600560006101000a81548173ffffffffffffffffffffffffffffffffffffffff021916908373ffffffffffffffffffffffffffffffffffffffff16021790555050565b6000600160008473ffffffffffffffffffffffffffffffffffffffff1673ffffffffffffffffffffffffffffffffffffffff16815260200190815260200160002060008373ffffffffffffffffffffffffffffffffffffffff1673ffffffffffffffffffffffffffffffffffffffff16815260200190815260200160002054905092915050565b6000610b078385611173565b600284610b149190611cb3565b9050600560009054906101000a900473ffffffffffffffffffffffffffffffffffffffff1673ffffffffffffffffffffffffffffffffffffffff1663a9059cbb84836040518363ffffffff1660e01b8152600401610b73929190611a19565b602060405180830381600087803b158015610b8d57600080fd5b505af1158015610ba1573d6000803e3d6000fd5b505050506040513d601f19601f82011682018060405250810190610bc59190611490565b509392505050565b600033905090565b600073ffffffffffffffffffffffffffffffffffffffff168373ffffffffffffffffffffffffffffffffffffffff161415610c45576040517f08c379a0000000000000000000000000000000000000000000000000000000008152600401610c3c90611b7a565b60405180910390fd5b600073ffffffffffffffffffffffffffffffffffffffff168273ffffffffffffffffffffffffffffffffffffffff161415610cb5576040517f08c379a0000000000000000000000000000000000000000000000000000000008152600401610cac90611ada565b60405180910390fd5b80600160008573ffffffffffffffffffffffffffffffffffffffff1673ffffffffffffffffffffffffffffffffffffffff16815260200190815260200160002060008473ffffffffffffffffffffffffffffffffffffffff1673ffffffffffffffffffffffffffffffffffffffff168152602001908152602001600020819055508173ffffffffffffffffffffffffffffffffffffffff168373ffffffffffffffffffffffffffffffffffffffff167f8c5be1e5ebec7d5bd14f71427d1e84f3dd0314c0f7b2291e5b200ac8c7c3b92583604051610d939190611bda565b60405180910390a3505050565b600073ffffffffffffffffffffffffffffffffffffffff168373ffffffffffffffffffffffffffffffffffffffff161415610e10576040517f08c379a0000000000000000000000000000000000000000000000000000000008152600401610e0790611b5a565b60405180910390fd5b600073ffffffffffffffffffffffffffffffffffffffff168273ffffffffffffffffffffffffffffffffffffffff161415610e80576040517f08c379a0000000000000000000000000000000000000000000000000000000008152600401610e7790611a9a565b60405180910390fd5b610e8b838383611347565b60008060008573ffffffffffffffffffffffffffffffffffffffff1673ffffffffffffffffffffffffffffffffffffffff16815260200190815260200160002054905081811015610f11576040517f08c379a0000000000000000000000000000000000000000000000000000000008152600401610f0890611afa565b60405180910390fd5b8181610f1d9190611d0d565b6000808673ffffffffffffffffffffffffffffffffffffffff1673ffffffffffffffffffffffffffffffffffffffff16815260200190815260200160002081905550816000808573ffffffffffffffffffffffffffffffffffffffff1673ffffffffffffffffffffffffffffffffffffffff1681526020019081526020016000206000828254610fad9190611c2c565b925050819055508273ffffffffffffffffffffffffffffffffffffffff168473ffffffffffffffffffffffffffffffffffffffff167fddf252ad1be2c89b69c2b068fc378daa952ba7f163c4a11628f55a4df523b3ef846040516110119190611bda565b60405180910390a350505050565b600073ffffffffffffffffffffffffffffffffffffffff168273ffffffffffffffffffffffffffffffffffffffff16141561108f576040517f08c379a000000000000000000000000000000000000000000000000000000000815260040161108690611bba565b60405180910390fd5b61109b60008383611347565b80600260008282546110ad9190611c2c565b92505081905550806000808473ffffffffffffffffffffffffffffffffffffffff1673ffffffffffffffffffffffffffffffffffffffff16815260200190815260200160002060008282546111029190611c2c565b925050819055508173ffffffffffffffffffffffffffffffffffffffff16600073ffffffffffffffffffffffffffffffffffffffff167fddf252ad1be2c89b69c2b068fc378daa952ba7f163c4a11628f55a4df523b3ef836040516111679190611bda565b60405180910390a35050565b600073ffffffffffffffffffffffffffffffffffffffff168273ffffffffffffffffffffffffffffffffffffffff1614156111e3576040517f08c379a00000000000000000000000000000000000000000000000000000000081526004016111da90611b3a565b60405180910390fd5b6111ef82600083611347565b60008060008473ffffffffffffffffffffffffffffffffffffffff1673ffffffffffffffffffffffffffffffffffffffff16815260200190815260200160002054905081811015611275576040517f08c379a000000000000000000000000000000000000000000000000000000000815260040161126c90611aba565b60405180910390fd5b81816112819190611d0d565b6000808573ffffffffffffffffffffffffffffffffffffffff1673ffffffffffffffffffffffffffffffffffffffff1681526020019081526020016000208190555081600260008282546112d59190611d0d565b92505081905550600073ffffffffffffffffffffffffffffffffffffffff168373ffffffffffffffffffffffffffffffffffffffff167fddf252ad1be2c89b69c2b068fc378daa952ba7f163c4a11628f55a4df523b3ef8460405161133a9190611bda565b60405180910390a3505050565b505050565b60008135905061135b81611ebd565b92915050565b60008151905061137081611ed4565b92915050565b60008135905061138581611eeb565b92915050565b60008151905061139a81611eeb565b92915050565b6000602082840312156113b257600080fd5b60006113c08482850161134c565b91505092915050565b600080604083850312156113dc57600080fd5b60006113ea8582860161134c565b92505060206113fb8582860161134c565b9150509250929050565b60008060006060848603121561141a57600080fd5b60006114288682870161134c565b93505060206114398682870161134c565b925050604061144a86828701611376565b9150509250925092565b6000806040838503121561146757600080fd5b60006114758582860161134c565b925050602061148685828601611376565b9150509250929050565b6000602082840312156114a257600080fd5b60006114b084828501611361565b91505092915050565b6000602082840312156114cb57600080fd5b60006114d98482850161138b565b91505092915050565b600080604083850312156114f557600080fd5b600061150385828601611376565b92505060206115148582860161134c565b9150509250929050565b60008060006060848603121561153357600080fd5b600061154186828701611376565b93505060206115528682870161134c565b925050604061156386828701611376565b9150509250925092565b61157681611d41565b82525050565b61158581611d53565b82525050565b61159481611d96565b82525050565b60006115a582611c10565b6115af8185611c1b565b93506115bf818560208601611dba565b6115c881611eac565b840191505092915050565b60006115e0602383611c1b565b91507f45524332303a207472616e7366657220746f20746865207a65726f206164647260008301527f65737300000000000000000000000000000000000000000000000000000000006020830152604082019050919050565b6000611646602283611c1b565b91507f45524332303a206275726e20616d6f756e7420657863656564732062616c616e60008301527f63650000000000000000000000000000000000000000000000000000000000006020830152604082019050919050565b60006116ac602283611c1b565b91507f45524332303a20617070726f766520746f20746865207a65726f20616464726560008301527f73730000000000000000000000000000000000000000000000000000000000006020830152604082019050919050565b6000611712602683611c1b565b91507f45524332303a207472616e7366657220616d6f756e742065786365656473206260008301527f616c616e636500000000000000000000000000000000000000000000000000006020830152604082019050919050565b6000611778602883611c1b565b91507f45524332303a207472616e7366657220616d6f756e742065786365656473206160008301527f6c6c6f77616e63650000000000000000000000000000000000000000000000006020830152604082019050919050565b60006117de602183611c1b565b91507f45524332303a206275726e2066726f6d20746865207a65726f2061646472657360008301527f73000000000000000000000000000000000000000000000000000000000000006020830152604082019050919050565b6000611844602583611c1b565b91507f45524332303a207472616e736665722066726f6d20746865207a65726f20616460008301527f64726573730000000000000000000000000000000000000000000000000000006020830152604082019050919050565b60006118aa602483611c1b565b91507f45524332303a20617070726f76652066726f6d20746865207a65726f2061646460008301527f72657373000000000000000000000000000000000000000000000000000000006020830152604082019050919050565b6000611910602583611c1b565b91507f45524332303a2064656372656173656420616c6c6f77616e63652062656c6f7760008301527f207a65726f0000000000000000000000000000000000000000000000000000006020830152604082019050919050565b6000611976601f83611c1b565b91507f45524332303a206d696e7420746f20746865207a65726f2061646472657373006000830152602082019050919050565b6119b281611d7f565b82525050565b6119c181611d89565b82525050565b60006020820190506119dc600083018461156d565b92915050565b60006060820190506119f7600083018661156d565b611a04602083018561156d565b611a1160408301846119a9565b949350505050565b6000604082019050611a2e600083018561156d565b611a3b60208301846119a9565b9392505050565b6000602082019050611a57600083018461157c565b92915050565b6000602082019050611a72600083018461158b565b92915050565b60006020820190508181036000830152611a92818461159a565b905092915050565b60006020820190508181036000830152611ab3816115d3565b9050919050565b60006020820190508181036000830152611ad381611639565b9050919050565b60006020820190508181036000830152611af38161169f565b9050919050565b60006020820190508181036000830152611b1381611705565b9050919050565b60006020820190508181036000830152611b338161176b565b9050919050565b60006020820190508181036000830152611b53816117d1565b9050919050565b60006020820190508181036000830152611b7381611837565b9050919050565b60006020820190508181036000830152611b938161189d565b9050919050565b60006020820190508181036000830152611bb381611903565b9050919050565b60006020820190508181036000830152611bd381611969565b9050919050565b6000602082019050611bef60008301846119a9565b92915050565b6000602082019050611c0a60008301846119b8565b92915050565b600081519050919050565b600082825260208201905092915050565b6000611c3782611d7f565b9150611c4283611d7f565b9250827fffffffffffffffffffffffffffffffffffffffffffffffffffffffffffffffff03821115611c7757611c76611e1f565b5b828201905092915050565b6000611c8d82611d7f565b9150611c9883611d7f565b925082611ca857611ca7611e4e565b5b828204905092915050565b6000611cbe82611d7f565b9150611cc983611d7f565b9250817fffffffffffffffffffffffffffffffffffffffffffffffffffffffffffffffff0483118215151615611d0257611d01611e1f565b5b828202905092915050565b6000611d1882611d7f565b9150611d2383611d7f565b925082821015611d3657611d35611e1f565b5b828203905092915050565b6000611d4c82611d5f565b9050919050565b60008115159050919050565b600073ffffffffffffffffffffffffffffffffffffffff82169050919050565b6000819050919050565b600060ff82169050919050565b6000611da182611da8565b9050919050565b6000611db382611d5f565b9050919050565b60005b83811015611dd8578082015181840152602081019050611dbd565b83811115611de7576000848401525b50505050565b60006002820490506001821680611e0557607f821691505b60208210811415611e1957611e18611e7d565b5b50919050565b7f4e487b7100000000000000000000000000000000000000000000000000000000600052601160045260246000fd5b7f4e487b7100000000000000000000000000000000000000000000000000000000600052601260045260246000fd5b7f4e487b7100000000000000000000000000000000000000000000000000000000600052602260045260246000fd5b6000601f19601f8301169050919050565b611ec681611d41565b8114611ed157600080fd5b50565b611edd81611d53565b8114611ee857600080fd5b50565b611ef481611d7f565b8114611eff57600080fd5b5056fea2646970667358221220b1958991b846f897317d81dfcca8c88eb368c7ef56b82c7aa4ffa41ab024a70364736f6c63430008000033",
  "immutableReferences": {},
  "source": "// SPDX-License-Identifier: Apache-2.0\npragma solidity ^0.8.0;\n\nimport \"./ERC20.sol\";\n\ncontract YearnVault is ERC20 {\n    ERC20 public underlyToken ;\n    address public addr;\n    mapping(address => uint256) private _balances;\n\n    mapping(address => mapping(address => uint256)) private _allowances;\n\n    constructor(address _addr) ERC20(\"vSCFX\", \"vSCFX\", 10000) public { \n        addr = _addr;\n        underlyToken = ERC20(addr);\n    }\n\n    function setAddr(address _addr) public {\n        addr = _addr;\n        underlyToken = ERC20(addr);\n    }\n\n    function show() public view returns(uint256){\n        return underlyToken.totalSupply();\n    }\n\n    function deposit(uint256 amount, address recipient) external returns (uint256) {\n        //require(underlyToken.balanceOf(msg.sender) > amount, \"balance not enough\");\n        underlyToken.transferFrom(recipient, address(this), amount);\n        _mint(recipient, amount / 2);\n    }\n\n    function withdraw(\n        uint256 _amount,\n        address _destination,\n        uint256 _minUnderlying\n    ) external returns (uint256 shares) {\n        _burn(_destination, _amount);\n        shares = _amount * 2;\n        underlyToken.transfer(_destination,  shares);\n        return shares;\n    }\n\n    // // Returns the amount of underlying per each unit [1e18] of yearn shares\n    // function pricePerShare() external view returns (uint256);\n\n    // function governance() external view returns (address);\n\n    // function setDepositLimit(uint256) external;\n\n    // function totalSupply() external view returns (uint256);\n\n    // function totalAssets() external view returns (uint256);\n\n    // function apiVersion() external view returns (string memory);\n}\n",
  "sourcePath": "/Users/doubled/Desktop/code/Conflux UMA/YearnVault/contracts/YearnVault.sol",
  "compiler": {
    "name": "solc",
    "version": "0.8.0+commit.c7dfd78e.Emscripten.clang"
  },
  "schemaVersion": "3.2.0",
  "updatedAt": "2021-08-24T11:19:53.985Z",
  "devdoc": {
    "kind": "dev",
    "methods": {
      "allowance(address,address)": {
        "details": "See {IERC20-allowance}."
      },
      "approve(address,uint256)": {
        "details": "See {IERC20-approve}. Requirements: - `spender` cannot be the zero address."
      },
      "balanceOf(address)": {
        "details": "See {IERC20-balanceOf}."
      },
      "decimals()": {
        "details": "Returns the number of decimals used to get its user representation. For example, if `decimals` equals `2`, a balance of `505` tokens should be displayed to a user as `5,05` (`505 / 10 ** 2`). Tokens usually opt for a value of 18, imitating the relationship between Ether and Wei. This is the value {ERC20} uses, unless this function is overridden; NOTE: This information is only used for _display_ purposes: it in no way affects any of the arithmetic of the contract, including {IERC20-balanceOf} and {IERC20-transfer}."
      },
      "decreaseAllowance(address,uint256)": {
        "details": "Atomically decreases the allowance granted to `spender` by the caller. This is an alternative to {approve} that can be used as a mitigation for problems described in {IERC20-approve}. Emits an {Approval} event indicating the updated allowance. Requirements: - `spender` cannot be the zero address. - `spender` must have allowance for the caller of at least `subtractedValue`."
      },
      "increaseAllowance(address,uint256)": {
        "details": "Atomically increases the allowance granted to `spender` by the caller. This is an alternative to {approve} that can be used as a mitigation for problems described in {IERC20-approve}. Emits an {Approval} event indicating the updated allowance. Requirements: - `spender` cannot be the zero address."
      },
      "name()": {
        "details": "Returns the name of the token."
      },
      "symbol()": {
        "details": "Returns the symbol of the token, usually a shorter version of the name."
      },
      "totalSupply()": {
        "details": "See {IERC20-totalSupply}."
      },
      "transfer(address,uint256)": {
        "details": "See {IERC20-transfer}. Requirements: - `recipient` cannot be the zero address. - the caller must have a balance of at least `amount`."
      },
      "transferFrom(address,address,uint256)": {
        "details": "See {IERC20-transferFrom}. Emits an {Approval} event indicating the updated allowance. This is not required by the EIP. See the note at the beginning of {ERC20}. Requirements: - `sender` and `recipient` cannot be the zero address. - `sender` must have a balance of at least `amount`. - the caller must have allowance for ``sender``'s tokens of at least `amount`."
      }
    },
    "version": 1
  },
  "userdoc": {
    "kind": "user",
    "methods": {},
    "version": 1
  }
}