{
  "contractName": "YearnVault",
  "abi": [
    {
      "inputs": [
        {
          "internalType": "address",
          "name": "_addr",
          "type": "address"
        }
      ],
      "stateMutability": "nonpayable",
      "type": "constructor"
    },
    {
      "anonymous": false,
      "inputs": [
        {
          "indexed": true,
          "internalType": "address",
          "name": "owner",
          "type": "address"
        },
        {
          "indexed": true,
          "internalType": "address",
          "name": "spender",
          "type": "address"
        },
        {
          "indexed": false,
          "internalType": "uint256",
          "name": "value",
          "type": "uint256"
        }
      ],
      "name": "Approval",
      "type": "event"
    },
    {
      "anonymous": false,
      "inputs": [
        {
          "indexed": true,
          "internalType": "address",
          "name": "from",
          "type": "address"
        },
        {
          "indexed": true,
          "internalType": "address",
          "name": "to",
          "type": "address"
        },
        {
          "indexed": false,
          "internalType": "uint256",
          "name": "value",
          "type": "uint256"
        }
      ],
      "name": "Transfer",
      "type": "event"
    },
    {
      "inputs": [],
      "name": "addr",
      "outputs": [
        {
          "internalType": "address",
          "name": "",
          "type": "address"
        }
      ],
      "stateMutability": "view",
      "type": "function"
    },
    {
      "inputs": [
        {
          "internalType": "address",
          "name": "owner",
          "type": "address"
        },
        {
          "internalType": "address",
          "name": "spender",
          "type": "address"
        }
      ],
      "name": "allowance",
      "outputs": [
        {
          "internalType": "uint256",
          "name": "",
          "type": "uint256"
        }
      ],
      "stateMutability": "view",
      "type": "function"
    },
    {
      "inputs": [
        {
          "internalType": "address",
          "name": "spender",
          "type": "address"
        },
        {
          "internalType": "uint256",
          "name": "amount",
          "type": "uint256"
        }
      ],
      "name": "approve",
      "outputs": [
        {
          "internalType": "bool",
          "name": "",
          "type": "bool"
        }
      ],
      "stateMutability": "nonpayable",
      "type": "function"
    },
    {
      "inputs": [
        {
          "internalType": "address",
          "name": "account",
          "type": "address"
        }
      ],
      "name": "balanceOf",
      "outputs": [
        {
          "internalType": "uint256",
          "name": "",
          "type": "uint256"
        }
      ],
      "stateMutability": "view",
      "type": "function"
    },
    {
      "inputs": [],
      "name": "decimals",
      "outputs": [
        {
          "internalType": "uint8",
          "name": "",
          "type": "uint8"
        }
      ],
      "stateMutability": "view",
      "type": "function"
    },
    {
      "inputs": [
        {
          "internalType": "address",
          "name": "spender",
          "type": "address"
        },
        {
          "internalType": "uint256",
          "name": "subtractedValue",
          "type": "uint256"
        }
      ],
      "name": "decreaseAllowance",
      "outputs": [
        {
          "internalType": "bool",
          "name": "",
          "type": "bool"
        }
      ],
      "stateMutability": "nonpayable",
      "type": "function"
    },
    {
      "inputs": [
        {
          "internalType": "address",
          "name": "spender",
          "type": "address"
        },
        {
          "internalType": "uint256",
          "name": "addedValue",
          "type": "uint256"
        }
      ],
      "name": "increaseAllowance",
      "outputs": [
        {
          "internalType": "bool",
          "name": "",
          "type": "bool"
        }
      ],
      "stateMutability": "nonpayable",
      "type": "function"
    },
    {
      "inputs": [],
      "name": "name",
      "outputs": [
        {
          "internalType": "string",
          "name": "",
          "type": "string"
        }
      ],
      "stateMutability": "view",
      "type": "function"
    },
    {
      "inputs": [],
      "name": "symbol",
      "outputs": [
        {
          "internalType": "string",
          "name": "",
          "type": "string"
        }
      ],
      "stateMutability": "view",
      "type": "function"
    },
    {
      "inputs": [],
      "name": "token",
      "outputs": [
        {
          "internalType": "contract ERC20",
          "name": "",
          "type": "address"
        }
      ],
      "stateMutability": "view",
      "type": "function"
    },
    {
      "inputs": [],
      "name": "totalSupply",
      "outputs": [
        {
          "internalType": "uint256",
          "name": "",
          "type": "uint256"
        }
      ],
      "stateMutability": "view",
      "type": "function"
    },
    {
      "inputs": [
        {
          "internalType": "address",
          "name": "recipient",
          "type": "address"
        },
        {
          "internalType": "uint256",
          "name": "amount",
          "type": "uint256"
        }
      ],
      "name": "transfer",
      "outputs": [
        {
          "internalType": "bool",
          "name": "",
          "type": "bool"
        }
      ],
      "stateMutability": "nonpayable",
      "type": "function"
    },
    {
      "inputs": [
        {
          "internalType": "address",
          "name": "sender",
          "type": "address"
        },
        {
          "internalType": "address",
          "name": "recipient",
          "type": "address"
        },
        {
          "internalType": "uint256",
          "name": "amount",
          "type": "uint256"
        }
      ],
      "name": "transferFrom",
      "outputs": [
        {
          "internalType": "bool",
          "name": "",
          "type": "bool"
        }
      ],
      "stateMutability": "nonpayable",
      "type": "function"
    },
    {
      "inputs": [
        {
          "internalType": "address",
          "name": "_addr",
          "type": "address"
        }
      ],
      "name": "setAddr",
      "outputs": [],
      "stateMutability": "nonpayable",
      "type": "function"
    },
    {
      "inputs": [
        {
          "internalType": "uint256",
          "name": "_amount",
          "type": "uint256"
        }
      ],
      "name": "deposit",
      "outputs": [],
      "stateMutability": "nonpayable",
      "type": "function"
    },
    {
      "inputs": [
        {
          "internalType": "uint256",
          "name": "_shares",
          "type": "uint256"
        },
        {
          "internalType": "address",
          "name": "_destination",
          "type": "address"
        },
        {
          "internalType": "uint256",
          "name": "_minUnderlying",
          "type": "uint256"
        }
      ],
      "name": "_withdraw",
      "outputs": [
        {
          "internalType": "uint256",
          "name": "",
          "type": "uint256"
        }
      ],
      "stateMutability": "nonpayable",
      "type": "function"
    },
    {
      "inputs": [],
      "name": "pricePerShare",
      "outputs": [
        {
          "internalType": "uint256",
          "name": "",
          "type": "uint256"
        }
      ],
      "stateMutability": "view",
      "type": "function"
    },
    {
      "inputs": [],
      "name": "totalAssets",
      "outputs": [
        {
          "internalType": "uint256",
          "name": "",
          "type": "uint256"
        }
      ],
      "stateMutability": "view",
      "type": "function"
    },
    {
      "inputs": [],
      "name": "apiVersion",
      "outputs": [
        {
          "internalType": "string",
          "name": "",
          "type": "string"
        }
      ],
      "stateMutability": "view",
      "type": "function"
    }
  ],
  "bytecode": "0x60806040523480156200001157600080fd5b50604051620028d1380380620028d1833981810160405281019062000037919062000249565b6040518060400160405280600581526020017f76534346580000000000000000000000000000000000000000000000000000008152506040518060400160405280600581526020017f76534346580000000000000000000000000000000000000000000000000000008152508160039080519060200190620000bb92919062000182565b508060049080519060200190620000d492919062000182565b50505080600660006101000a81548173ffffffffffffffffffffffffffffffffffffffff021916908373ffffffffffffffffffffffffffffffffffffffff160217905550600660009054906101000a900473ffffffffffffffffffffffffffffffffffffffff16600560006101000a81548173ffffffffffffffffffffffffffffffffffffffff021916908373ffffffffffffffffffffffffffffffffffffffff1602179055505062000328565b8280546200019090620002a9565b90600052602060002090601f016020900481019282620001b4576000855562000200565b82601f10620001cf57805160ff191683800117855562000200565b8280016001018555821562000200579182015b82811115620001ff578251825591602001919060010190620001e2565b5b5090506200020f919062000213565b5090565b5b808211156200022e57600081600090555060010162000214565b5090565b60008151905062000243816200030e565b92915050565b6000602082840312156200025c57600080fd5b60006200026c8482850162000232565b91505092915050565b6000620002828262000289565b9050919050565b600073ffffffffffffffffffffffffffffffffffffffff82169050919050565b60006002820490506001821680620002c257607f821691505b60208210811415620002d957620002d8620002df565b5b50919050565b7f4e487b7100000000000000000000000000000000000000000000000000000000600052602260045260246000fd5b620003198162000275565b81146200032557600080fd5b50565b61259980620003386000396000f3fe608060405234801561001057600080fd5b50600436106101215760003560e01c806370a08231116100ad578063a9059cbb11610071578063a9059cbb14610336578063b6b55f2514610366578063d1d80fdf14610382578063dd62ed3e1461039e578063fc0c546a146103ce57610121565b806370a082311461027c578063767800de146102ac57806395d89b41146102ca57806399530b06146102e8578063a457c2d71461030657610121565b806323b872dd116100f457806323b872dd146101b057806325829410146101e0578063313ce567146101fe578063395093511461021c578063491234451461024c57610121565b806301e1d1141461012657806306fdde0314610144578063095ea7b31461016257806318160ddd14610192575b600080fd5b61012e6103ec565b60405161013b919061223b565b60405180910390f35b61014c61049e565b60405161015991906120b9565b60405180910390f35b61017c60048036038101906101779190611a68565b610530565b6040516101899190612083565b60405180910390f35b61019a61054e565b6040516101a7919061223b565b60405180910390f35b6101ca60048036038101906101c59190611a19565b610558565b6040516101d79190612083565b60405180910390f35b6101e8610650565b6040516101f591906120b9565b60405180910390f35b61020661068d565b6040516102139190612256565b60405180910390f35b61023660048036038101906102319190611a68565b610696565b6040516102439190612083565b60405180910390f35b61026660048036038101906102619190611b1f565b610742565b604051610273919061223b565b60405180910390f35b610296600480360381019061029191906119b4565b610a7f565b6040516102a3919061223b565b60405180910390f35b6102b4610ac7565b6040516102c19190612008565b60405180910390f35b6102d2610aed565b6040516102df91906120b9565b60405180910390f35b6102f0610b7f565b6040516102fd919061223b565b60405180910390f35b610320600480360381019061031b9190611a68565b610c56565b60405161032d9190612083565b60405180910390f35b610350600480360381019061034b9190611a68565b610d41565b60405161035d9190612083565b60405180910390f35b610380600480360381019061037b9190611acd565b610d5f565b005b61039c600480360381019061039791906119b4565b611077565b005b6103b860048036038101906103b391906119dd565b61111e565b6040516103c5919061223b565b60405180910390f35b6103d66111a5565b6040516103e3919061209e565b60405180910390f35b6000600560009054906101000a900473ffffffffffffffffffffffffffffffffffffffff1673ffffffffffffffffffffffffffffffffffffffff166370a08231306040518263ffffffff1660e01b81526004016104499190612008565b60206040518083038186803b15801561046157600080fd5b505afa158015610475573d6000803e3d6000fd5b505050506040513d601f19601f820116820180604052508101906104999190611af6565b905090565b6060600380546104ad9061244e565b80601f01602080910402602001604051908101604052809291908181526020018280546104d99061244e565b80156105265780601f106104fb57610100808354040283529160200191610526565b820191906000526020600020905b81548152906001019060200180831161050957829003601f168201915b5050505050905090565b600061054461053d6111cb565b84846111d3565b6001905092915050565b6000600254905090565b600061056584848461139e565b6000600160008673ffffffffffffffffffffffffffffffffffffffff1673ffffffffffffffffffffffffffffffffffffffff16815260200190815260200160002060006105b06111cb565b73ffffffffffffffffffffffffffffffffffffffff1673ffffffffffffffffffffffffffffffffffffffff16815260200190815260200160002054905082811015610630576040517f08c379a00000000000000000000000000000000000000000000000000000000081526004016106279061215b565b60405180910390fd5b6106448561063c6111cb565b8584036111d3565b60019150509392505050565b60606040518060400160405280600581526020017f302e332e35000000000000000000000000000000000000000000000000000000815250905090565b60006012905090565b60006107386106a36111cb565b8484600160006106b16111cb565b73ffffffffffffffffffffffffffffffffffffffff1673ffffffffffffffffffffffffffffffffffffffff16815260200190815260200160002060008873ffffffffffffffffffffffffffffffffffffffff1673ffffffffffffffffffffffffffffffffffffffff16815260200190815260200160002054610733919061228d565b6111d3565b6001905092915050565b60008061074d61054e565b85600560009054906101000a900473ffffffffffffffffffffffffffffffffffffffff1673ffffffffffffffffffffffffffffffffffffffff166370a08231306040518263ffffffff1660e01b81526004016107a99190612008565b60206040518083038186803b1580156107c157600080fd5b505afa1580156107d5573d6000803e3d6000fd5b505050506040513d601f19601f820116820180604052508101906107f99190611af6565b6108039190612314565b61080d91906122e3565b9050828111610851576040517f08c379a0000000000000000000000000000000000000000000000000000000008152600401610848906121db565b60405180910390fd5b61085b338661161f565b6000600560009054906101000a900473ffffffffffffffffffffffffffffffffffffffff1673ffffffffffffffffffffffffffffffffffffffff166370a08231306040518263ffffffff1660e01b81526004016108b89190612008565b60206040518083038186803b1580156108d057600080fd5b505afa1580156108e4573d6000803e3d6000fd5b505050506040513d601f19601f820116820180604052508101906109089190611af6565b9050818110156109c357600560009054906101000a900473ffffffffffffffffffffffffffffffffffffffff1673ffffffffffffffffffffffffffffffffffffffff1663a9059cbb86846040518363ffffffff1660e01b815260040161096f92919061205a565b602060405180830381600087803b15801561098957600080fd5b505af115801561099d573d6000803e3d6000fd5b505050506040513d601f19601f820116820180604052508101906109c19190611aa4565b505b600560009054906101000a900473ffffffffffffffffffffffffffffffffffffffff1673ffffffffffffffffffffffffffffffffffffffff1663a9059cbb86846040518363ffffffff1660e01b8152600401610a2092919061205a565b602060405180830381600087803b158015610a3a57600080fd5b505af1158015610a4e573d6000803e3d6000fd5b505050506040513d601f19601f82011682018060405250810190610a729190611aa4565b5081925050509392505050565b60008060008373ffffffffffffffffffffffffffffffffffffffff1673ffffffffffffffffffffffffffffffffffffffff168152602001908152602001600020549050919050565b600660009054906101000a900473ffffffffffffffffffffffffffffffffffffffff1681565b606060048054610afc9061244e565b80601f0160208091040260200160405190810160405280929190818152602001828054610b289061244e565b8015610b755780601f10610b4a57610100808354040283529160200191610b75565b820191906000526020600020905b815481529060010190602001808311610b5857829003601f168201915b5050505050905090565b6000610b8961054e565b670de0b6b3a7640000600560009054906101000a900473ffffffffffffffffffffffffffffffffffffffff1673ffffffffffffffffffffffffffffffffffffffff166370a08231306040518263ffffffff1660e01b8152600401610bed9190612008565b60206040518083038186803b158015610c0557600080fd5b505afa158015610c19573d6000803e3d6000fd5b505050506040513d601f19601f82011682018060405250810190610c3d9190611af6565b610c479190612314565b610c5191906122e3565b905090565b60008060016000610c656111cb565b73ffffffffffffffffffffffffffffffffffffffff1673ffffffffffffffffffffffffffffffffffffffff16815260200190815260200160002060008573ffffffffffffffffffffffffffffffffffffffff1673ffffffffffffffffffffffffffffffffffffffff16815260200190815260200160002054905082811015610d22576040517f08c379a0000000000000000000000000000000000000000000000000000000008152600401610d19906121fb565b60405180910390fd5b610d36610d2d6111cb565b858584036111d3565b600191505092915050565b6000610d55610d4e6111cb565b848461139e565b6001905092915050565b6000600560009054906101000a900473ffffffffffffffffffffffffffffffffffffffff1673ffffffffffffffffffffffffffffffffffffffff166370a08231306040518263ffffffff1660e01b8152600401610dbc9190612008565b60206040518083038186803b158015610dd457600080fd5b505afa158015610de8573d6000803e3d6000fd5b505050506040513d601f19601f82011682018060405250810190610e0c9190611af6565b90506000600560009054906101000a900473ffffffffffffffffffffffffffffffffffffffff1673ffffffffffffffffffffffffffffffffffffffff166370a08231306040518263ffffffff1660e01b8152600401610e6b9190612008565b60206040518083038186803b158015610e8357600080fd5b505afa158015610e97573d6000803e3d6000fd5b505050506040513d601f19601f82011682018060405250810190610ebb9190611af6565b9050600560009054906101000a900473ffffffffffffffffffffffffffffffffffffffff1673ffffffffffffffffffffffffffffffffffffffff166323b872dd3330866040518463ffffffff1660e01b8152600401610f1c93929190612023565b602060405180830381600087803b158015610f3657600080fd5b505af1158015610f4a573d6000803e3d6000fd5b505050506040513d601f19601f82011682018060405250810190610f6e9190611aa4565b506000600560009054906101000a900473ffffffffffffffffffffffffffffffffffffffff1673ffffffffffffffffffffffffffffffffffffffff166370a08231306040518263ffffffff1660e01b8152600401610fcc9190612008565b60206040518083038186803b158015610fe457600080fd5b505afa158015610ff8573d6000803e3d6000fd5b505050506040513d601f19601f8201168201806040525081019061101c9190611af6565b9050818161102a919061236e565b935060008061103761054e565b141561104557849050611066565b8361104e61054e565b866110599190612314565b61106391906122e3565b90505b61107033826117f6565b5050505050565b80600660006101000a81548173ffffffffffffffffffffffffffffffffffffffff021916908373ffffffffffffffffffffffffffffffffffffffff160217905550600660009054906101000a900473ffffffffffffffffffffffffffffffffffffffff16600560006101000a81548173ffffffffffffffffffffffffffffffffffffffff021916908373ffffffffffffffffffffffffffffffffffffffff16021790555050565b6000600160008473ffffffffffffffffffffffffffffffffffffffff1673ffffffffffffffffffffffffffffffffffffffff16815260200190815260200160002060008373ffffffffffffffffffffffffffffffffffffffff1673ffffffffffffffffffffffffffffffffffffffff16815260200190815260200160002054905092915050565b600560009054906101000a900473ffffffffffffffffffffffffffffffffffffffff1681565b600033905090565b600073ffffffffffffffffffffffffffffffffffffffff168373ffffffffffffffffffffffffffffffffffffffff161415611243576040517f08c379a000000000000000000000000000000000000000000000000000000000815260040161123a906121bb565b60405180910390fd5b600073ffffffffffffffffffffffffffffffffffffffff168273ffffffffffffffffffffffffffffffffffffffff1614156112b3576040517f08c379a00000000000000000000000000000000000000000000000000000000081526004016112aa9061211b565b60405180910390fd5b80600160008573ffffffffffffffffffffffffffffffffffffffff1673ffffffffffffffffffffffffffffffffffffffff16815260200190815260200160002060008473ffffffffffffffffffffffffffffffffffffffff1673ffffffffffffffffffffffffffffffffffffffff168152602001908152602001600020819055508173ffffffffffffffffffffffffffffffffffffffff168373ffffffffffffffffffffffffffffffffffffffff167f8c5be1e5ebec7d5bd14f71427d1e84f3dd0314c0f7b2291e5b200ac8c7c3b92583604051611391919061223b565b60405180910390a3505050565b600073ffffffffffffffffffffffffffffffffffffffff168373ffffffffffffffffffffffffffffffffffffffff16141561140e576040517f08c379a00000000000000000000000000000000000000000000000000000000081526004016114059061219b565b60405180910390fd5b600073ffffffffffffffffffffffffffffffffffffffff168273ffffffffffffffffffffffffffffffffffffffff16141561147e576040517f08c379a0000000000000000000000000000000000000000000000000000000008152600401611475906120db565b60405180910390fd5b611489838383611956565b60008060008573ffffffffffffffffffffffffffffffffffffffff1673ffffffffffffffffffffffffffffffffffffffff1681526020019081526020016000205490508181101561150f576040517f08c379a00000000000000000000000000000000000000000000000000000000081526004016115069061213b565b60405180910390fd5b8181036000808673ffffffffffffffffffffffffffffffffffffffff1673ffffffffffffffffffffffffffffffffffffffff16815260200190815260200160002081905550816000808573ffffffffffffffffffffffffffffffffffffffff1673ffffffffffffffffffffffffffffffffffffffff16815260200190815260200160002060008282546115a2919061228d565b925050819055508273ffffffffffffffffffffffffffffffffffffffff168473ffffffffffffffffffffffffffffffffffffffff167fddf252ad1be2c89b69c2b068fc378daa952ba7f163c4a11628f55a4df523b3ef84604051611606919061223b565b60405180910390a361161984848461195b565b50505050565b600073ffffffffffffffffffffffffffffffffffffffff168273ffffffffffffffffffffffffffffffffffffffff16141561168f576040517f08c379a00000000000000000000000000000000000000000000000000000000081526004016116869061217b565b60405180910390fd5b61169b82600083611956565b60008060008473ffffffffffffffffffffffffffffffffffffffff1673ffffffffffffffffffffffffffffffffffffffff16815260200190815260200160002054905081811015611721576040517f08c379a0000000000000000000000000000000000000000000000000000000008152600401611718906120fb565b60405180910390fd5b8181036000808573ffffffffffffffffffffffffffffffffffffffff1673ffffffffffffffffffffffffffffffffffffffff168152602001908152602001600020819055508160026000828254611778919061236e565b92505081905550600073ffffffffffffffffffffffffffffffffffffffff168373ffffffffffffffffffffffffffffffffffffffff167fddf252ad1be2c89b69c2b068fc378daa952ba7f163c4a11628f55a4df523b3ef846040516117dd919061223b565b60405180910390a36117f18360008461195b565b505050565b600073ffffffffffffffffffffffffffffffffffffffff168273ffffffffffffffffffffffffffffffffffffffff161415611866576040517f08c379a000000000000000000000000000000000000000000000000000000000815260040161185d9061221b565b60405180910390fd5b61187260008383611956565b8060026000828254611884919061228d565b92505081905550806000808473ffffffffffffffffffffffffffffffffffffffff1673ffffffffffffffffffffffffffffffffffffffff16815260200190815260200160002060008282546118d9919061228d565b925050819055508173ffffffffffffffffffffffffffffffffffffffff16600073ffffffffffffffffffffffffffffffffffffffff167fddf252ad1be2c89b69c2b068fc378daa952ba7f163c4a11628f55a4df523b3ef8360405161193e919061223b565b60405180910390a36119526000838361195b565b5050565b505050565b505050565b60008135905061196f8161251e565b92915050565b60008151905061198481612535565b92915050565b6000813590506119998161254c565b92915050565b6000815190506119ae8161254c565b92915050565b6000602082840312156119c657600080fd5b60006119d484828501611960565b91505092915050565b600080604083850312156119f057600080fd5b60006119fe85828601611960565b9250506020611a0f85828601611960565b9150509250929050565b600080600060608486031215611a2e57600080fd5b6000611a3c86828701611960565b9350506020611a4d86828701611960565b9250506040611a5e8682870161198a565b9150509250925092565b60008060408385031215611a7b57600080fd5b6000611a8985828601611960565b9250506020611a9a8582860161198a565b9150509250929050565b600060208284031215611ab657600080fd5b6000611ac484828501611975565b91505092915050565b600060208284031215611adf57600080fd5b6000611aed8482850161198a565b91505092915050565b600060208284031215611b0857600080fd5b6000611b168482850161199f565b91505092915050565b600080600060608486031215611b3457600080fd5b6000611b428682870161198a565b9350506020611b5386828701611960565b9250506040611b648682870161198a565b9150509250925092565b611b77816123a2565b82525050565b611b86816123b4565b82525050565b611b95816123f7565b82525050565b6000611ba682612271565b611bb0818561227c565b9350611bc081856020860161241b565b611bc98161250d565b840191505092915050565b6000611be160238361227c565b91507f45524332303a207472616e7366657220746f20746865207a65726f206164647260008301527f65737300000000000000000000000000000000000000000000000000000000006020830152604082019050919050565b6000611c4760228361227c565b91507f45524332303a206275726e20616d6f756e7420657863656564732062616c616e60008301527f63650000000000000000000000000000000000000000000000000000000000006020830152604082019050919050565b6000611cad60228361227c565b91507f45524332303a20617070726f766520746f20746865207a65726f20616464726560008301527f73730000000000000000000000000000000000000000000000000000000000006020830152604082019050919050565b6000611d1360268361227c565b91507f45524332303a207472616e7366657220616d6f756e742065786365656473206260008301527f616c616e636500000000000000000000000000000000000000000000000000006020830152604082019050919050565b6000611d7960288361227c565b91507f45524332303a207472616e7366657220616d6f756e742065786365656473206160008301527f6c6c6f77616e63650000000000000000000000000000000000000000000000006020830152604082019050919050565b6000611ddf60218361227c565b91507f45524332303a206275726e2066726f6d20746865207a65726f2061646472657360008301527f73000000000000000000000000000000000000000000000000000000000000006020830152604082019050919050565b6000611e4560258361227c565b91507f45524332303a207472616e736665722066726f6d20746865207a65726f20616460008301527f64726573730000000000000000000000000000000000000000000000000000006020830152604082019050919050565b6000611eab60248361227c565b91507f45524332303a20617070726f76652066726f6d20746865207a65726f2061646460008301527f72657373000000000000000000000000000000000000000000000000000000006020830152604082019050919050565b6000611f11601a8361227c565b91507f616d6f756e74206e656564206265796f6e6420746865206d696e0000000000006000830152602082019050919050565b6000611f5160258361227c565b91507f45524332303a2064656372656173656420616c6c6f77616e63652062656c6f7760008301527f207a65726f0000000000000000000000000000000000000000000000000000006020830152604082019050919050565b6000611fb7601f8361227c565b91507f45524332303a206d696e7420746f20746865207a65726f2061646472657373006000830152602082019050919050565b611ff3816123e0565b82525050565b612002816123ea565b82525050565b600060208201905061201d6000830184611b6e565b92915050565b60006060820190506120386000830186611b6e565b6120456020830185611b6e565b6120526040830184611fea565b949350505050565b600060408201905061206f6000830185611b6e565b61207c6020830184611fea565b9392505050565b60006020820190506120986000830184611b7d565b92915050565b60006020820190506120b36000830184611b8c565b92915050565b600060208201905081810360008301526120d38184611b9b565b905092915050565b600060208201905081810360008301526120f481611bd4565b9050919050565b6000602082019050818103600083015261211481611c3a565b9050919050565b6000602082019050818103600083015261213481611ca0565b9050919050565b6000602082019050818103600083015261215481611d06565b9050919050565b6000602082019050818103600083015261217481611d6c565b9050919050565b6000602082019050818103600083015261219481611dd2565b9050919050565b600060208201905081810360008301526121b481611e38565b9050919050565b600060208201905081810360008301526121d481611e9e565b9050919050565b600060208201905081810360008301526121f481611f04565b9050919050565b6000602082019050818103600083015261221481611f44565b9050919050565b6000602082019050818103600083015261223481611faa565b9050919050565b60006020820190506122506000830184611fea565b92915050565b600060208201905061226b6000830184611ff9565b92915050565b600081519050919050565b600082825260208201905092915050565b6000612298826123e0565b91506122a3836123e0565b9250827fffffffffffffffffffffffffffffffffffffffffffffffffffffffffffffffff038211156122d8576122d7612480565b5b828201905092915050565b60006122ee826123e0565b91506122f9836123e0565b925082612309576123086124af565b5b828204905092915050565b600061231f826123e0565b915061232a836123e0565b9250817fffffffffffffffffffffffffffffffffffffffffffffffffffffffffffffffff048311821515161561236357612362612480565b5b828202905092915050565b6000612379826123e0565b9150612384836123e0565b92508282101561239757612396612480565b5b828203905092915050565b60006123ad826123c0565b9050919050565b60008115159050919050565b600073ffffffffffffffffffffffffffffffffffffffff82169050919050565b6000819050919050565b600060ff82169050919050565b600061240282612409565b9050919050565b6000612414826123c0565b9050919050565b60005b8381101561243957808201518184015260208101905061241e565b83811115612448576000848401525b50505050565b6000600282049050600182168061246657607f821691505b6020821081141561247a576124796124de565b5b50919050565b7f4e487b7100000000000000000000000000000000000000000000000000000000600052601160045260246000fd5b7f4e487b7100000000000000000000000000000000000000000000000000000000600052601260045260246000fd5b7f4e487b7100000000000000000000000000000000000000000000000000000000600052602260045260246000fd5b6000601f19601f8301169050919050565b612527816123a2565b811461253257600080fd5b50565b61253e816123b4565b811461254957600080fd5b50565b612555816123e0565b811461256057600080fd5b5056fea2646970667358221220783207f33267e8efe9ebf6a29ed598bc7ac770fa82e03ddd86d6248e04cd585164736f6c63430008000033",
  "immutableReferences": {},
  "source": "// SPDX-License-Identifier: Apache-2.0\r\npragma solidity ^0.8.0;\r\n\r\nimport \"@openzeppelin/contracts/token/ERC20/ERC20.sol\";\r\n\r\ncontract YearnVault is ERC20 {\r\n    ERC20 public token ;\r\n    address public addr;\r\n    mapping(address => uint256) private _balances;\r\n\r\n    mapping(address => mapping(address => uint256)) private _allowances;\r\n\r\n    constructor(address _addr) ERC20(\"vSCFX\", \"vSCFX\") { \r\n        addr = _addr;\r\n        token = ERC20(addr);\r\n    }\r\n\r\n    function setAddr(address _addr) public {    //underlyToken\r\n        addr = _addr;\r\n        token = ERC20(addr);\r\n    }\r\n\r\n    // function deposit(uint256 amount, address recipient) external returns (uint256) {\r\n    //     //require(underlyToken.balanceOf(msg.sender) > amount, \"balance not enough\");\r\n    //     token.transferFrom(recipient, address(this), amount);    \r\n    //     uint256 shares = amount / 2;  //100 underlyToken  50 LP\r\n    //     _mint(recipient, shares);\r\n    //     return shares;\r\n    // }\r\n\r\n    function deposit(uint256 _amount) public {\r\n        uint256 _pool = token.balanceOf(address(this));\r\n        uint256 _before = token.balanceOf(address(this));\r\n        token.transferFrom(msg.sender, address(this), _amount);\r\n        uint256 _after = token.balanceOf(address(this));\r\n        _amount = _after - _before;\r\n        //_amount = _after.sub(_before); // Additional check for deflationary tokens\r\n        uint256 shares = 0;\r\n        if (totalSupply() == 0) {\r\n            shares = _amount;\r\n        } else {\r\n            shares = _amount * totalSupply() / _pool;\r\n            //shares = (_amount.mul(totalSupply())).div(_pool);\r\n        }\r\n        _mint(msg.sender, shares);\r\n    }\r\n\r\n    function _withdraw(\r\n        uint256 _shares,\r\n        address _destination,\r\n        uint256 _minUnderlying\r\n    ) public returns (uint256){\r\n        uint256 amount = token.balanceOf(address(this)) * _shares / totalSupply();\r\n        require(amount > _minUnderlying, \"amount need beyond the min\");\r\n        _burn(msg.sender, _shares);\r\n\r\n        // Check balance\r\n        uint256 b = token.balanceOf(address(this));\r\n        if (b < amount) {\r\n            //token.transfer(msg.sender, amount);\r\n            token.transfer(_destination, amount);\r\n        }\r\n\r\n        //token.transfer(msg.sender, amount);\r\n        token.transfer(_destination, amount);\r\n        return amount;\r\n    }\r\n\r\n    // // Returns the amount of underlying per each unit [1e18] of yearn shares\r\n    function pricePerShare() public view returns (uint256){\r\n        return token.balanceOf(address(this)) * 1e18 / totalSupply();\r\n    }\r\n\r\n    // function governance() external view returns (address);\r\n\r\n    // function setDepositLimit(uint256) external;\r\n\r\n    // function totalSupply() external view returns (uint256);\r\n\r\n    function totalAssets() public view returns (uint256) {\r\n        return token.balanceOf(address(this));\r\n    }\r\n\r\n    function apiVersion() public view returns (string memory) {\r\n        return \"0.3.5\";\r\n    }\r\n}\r\n",
  "sourcePath": "/d/Code/Conflux-UMA/YearnVault/contracts/YearnVault.sol",
  "compiler": {
    "name": "solc",
    "version": "0.8.0+commit.c7dfd78e.Emscripten.clang"
  },
  "schemaVersion": "3.2.0",
  "updatedAt": "2021-08-26T08:42:18.198Z",
  "devdoc": {
    "kind": "dev",
    "methods": {
      "allowance(address,address)": {
        "details": "See {IERC20-allowance}."
      },
      "approve(address,uint256)": {
        "details": "See {IERC20-approve}. Requirements: - `spender` cannot be the zero address."
      },
      "balanceOf(address)": {
        "details": "See {IERC20-balanceOf}."
      },
      "decimals()": {
        "details": "Returns the number of decimals used to get its user representation. For example, if `decimals` equals `2`, a balance of `505` tokens should be displayed to a user as `5.05` (`505 / 10 ** 2`). Tokens usually opt for a value of 18, imitating the relationship between Ether and Wei. This is the value {ERC20} uses, unless this function is overridden; NOTE: This information is only used for _display_ purposes: it in no way affects any of the arithmetic of the contract, including {IERC20-balanceOf} and {IERC20-transfer}."
      },
      "decreaseAllowance(address,uint256)": {
        "details": "Atomically decreases the allowance granted to `spender` by the caller. This is an alternative to {approve} that can be used as a mitigation for problems described in {IERC20-approve}. Emits an {Approval} event indicating the updated allowance. Requirements: - `spender` cannot be the zero address. - `spender` must have allowance for the caller of at least `subtractedValue`."
      },
      "increaseAllowance(address,uint256)": {
        "details": "Atomically increases the allowance granted to `spender` by the caller. This is an alternative to {approve} that can be used as a mitigation for problems described in {IERC20-approve}. Emits an {Approval} event indicating the updated allowance. Requirements: - `spender` cannot be the zero address."
      },
      "name()": {
        "details": "Returns the name of the token."
      },
      "symbol()": {
        "details": "Returns the symbol of the token, usually a shorter version of the name."
      },
      "totalSupply()": {
        "details": "See {IERC20-totalSupply}."
      },
      "transfer(address,uint256)": {
        "details": "See {IERC20-transfer}. Requirements: - `recipient` cannot be the zero address. - the caller must have a balance of at least `amount`."
      },
      "transferFrom(address,address,uint256)": {
        "details": "See {IERC20-transferFrom}. Emits an {Approval} event indicating the updated allowance. This is not required by the EIP. See the note at the beginning of {ERC20}. Requirements: - `sender` and `recipient` cannot be the zero address. - `sender` must have a balance of at least `amount`. - the caller must have allowance for ``sender``'s tokens of at least `amount`."
      }
    },
    "version": 1
  },
  "userdoc": {
    "kind": "user",
    "methods": {},
    "version": 1
  }
}