{
  "contractName": "YearnVault",
  "abi": [
    {
      "inputs": [],
      "stateMutability": "nonpayable",
      "type": "constructor"
    },
    {
      "anonymous": false,
      "inputs": [
        {
          "indexed": true,
          "internalType": "address",
          "name": "owner",
          "type": "address"
        },
        {
          "indexed": true,
          "internalType": "address",
          "name": "spender",
          "type": "address"
        },
        {
          "indexed": false,
          "internalType": "uint256",
          "name": "value",
          "type": "uint256"
        }
      ],
      "name": "Approval",
      "type": "event"
    },
    {
      "anonymous": false,
      "inputs": [
        {
          "indexed": true,
          "internalType": "address",
          "name": "from",
          "type": "address"
        },
        {
          "indexed": true,
          "internalType": "address",
          "name": "to",
          "type": "address"
        },
        {
          "indexed": false,
          "internalType": "uint256",
          "name": "value",
          "type": "uint256"
        }
      ],
      "name": "Transfer",
      "type": "event"
    },
    {
      "inputs": [
        {
          "internalType": "address",
          "name": "owner",
          "type": "address"
        },
        {
          "internalType": "address",
          "name": "spender",
          "type": "address"
        }
      ],
      "name": "allowance",
      "outputs": [
        {
          "internalType": "uint256",
          "name": "",
          "type": "uint256"
        }
      ],
      "stateMutability": "view",
      "type": "function"
    },
    {
      "inputs": [
        {
          "internalType": "address",
          "name": "spender",
          "type": "address"
        },
        {
          "internalType": "uint256",
          "name": "amount",
          "type": "uint256"
        }
      ],
      "name": "approve",
      "outputs": [
        {
          "internalType": "bool",
          "name": "",
          "type": "bool"
        }
      ],
      "stateMutability": "nonpayable",
      "type": "function"
    },
    {
      "inputs": [
        {
          "internalType": "address",
          "name": "account",
          "type": "address"
        }
      ],
      "name": "balanceOf",
      "outputs": [
        {
          "internalType": "uint256",
          "name": "",
          "type": "uint256"
        }
      ],
      "stateMutability": "view",
      "type": "function"
    },
    {
      "inputs": [],
      "name": "decimals",
      "outputs": [
        {
          "internalType": "uint8",
          "name": "",
          "type": "uint8"
        }
      ],
      "stateMutability": "view",
      "type": "function"
    },
    {
      "inputs": [
        {
          "internalType": "address",
          "name": "spender",
          "type": "address"
        },
        {
          "internalType": "uint256",
          "name": "subtractedValue",
          "type": "uint256"
        }
      ],
      "name": "decreaseAllowance",
      "outputs": [
        {
          "internalType": "bool",
          "name": "",
          "type": "bool"
        }
      ],
      "stateMutability": "nonpayable",
      "type": "function"
    },
    {
      "inputs": [
        {
          "internalType": "address",
          "name": "spender",
          "type": "address"
        },
        {
          "internalType": "uint256",
          "name": "addedValue",
          "type": "uint256"
        }
      ],
      "name": "increaseAllowance",
      "outputs": [
        {
          "internalType": "bool",
          "name": "",
          "type": "bool"
        }
      ],
      "stateMutability": "nonpayable",
      "type": "function"
    },
    {
      "inputs": [],
      "name": "name",
      "outputs": [
        {
          "internalType": "string",
          "name": "",
          "type": "string"
        }
      ],
      "stateMutability": "view",
      "type": "function"
    },
    {
      "inputs": [],
      "name": "symbol",
      "outputs": [
        {
          "internalType": "string",
          "name": "",
          "type": "string"
        }
      ],
      "stateMutability": "view",
      "type": "function"
    },
    {
      "inputs": [],
      "name": "totalSupply",
      "outputs": [
        {
          "internalType": "uint256",
          "name": "",
          "type": "uint256"
        }
      ],
      "stateMutability": "view",
      "type": "function"
    },
    {
      "inputs": [
        {
          "internalType": "address",
          "name": "recipient",
          "type": "address"
        },
        {
          "internalType": "uint256",
          "name": "amount",
          "type": "uint256"
        }
      ],
      "name": "transfer",
      "outputs": [
        {
          "internalType": "bool",
          "name": "",
          "type": "bool"
        }
      ],
      "stateMutability": "nonpayable",
      "type": "function"
    },
    {
      "inputs": [
        {
          "internalType": "address",
          "name": "sender",
          "type": "address"
        },
        {
          "internalType": "address",
          "name": "recipient",
          "type": "address"
        },
        {
          "internalType": "uint256",
          "name": "amount",
          "type": "uint256"
        }
      ],
      "name": "transferFrom",
      "outputs": [
        {
          "internalType": "bool",
          "name": "",
          "type": "bool"
        }
      ],
      "stateMutability": "nonpayable",
      "type": "function"
    },
    {
      "inputs": [],
      "name": "underlyToken",
      "outputs": [
        {
          "internalType": "contract ERC20",
          "name": "",
          "type": "address"
        }
      ],
      "stateMutability": "view",
      "type": "function"
    },
    {
      "inputs": [
        {
          "internalType": "uint256",
          "name": "amount",
          "type": "uint256"
        },
        {
          "internalType": "address",
          "name": "recipient",
          "type": "address"
        }
      ],
      "name": "deposit",
      "outputs": [
        {
          "internalType": "uint256",
          "name": "",
          "type": "uint256"
        }
      ],
      "stateMutability": "nonpayable",
      "type": "function"
    }
  ],
  "bytecode": "0x60806040523480156200001157600080fd5b506040518060400160405280600881526020017f47616d654974656d0000000000000000000000000000000000000000000000008152506040518060400160405280600381526020017f49544d00000000000000000000000000000000000000000000000000000000008152506064826003908051906020019062000098929190620002a3565b508160049080519060200190620000b1929190620002a3565b50620000d3620000c66200013160201b60201c565b826200013960201b60201c565b5050507382184314d27b9e63bf16ac2005059086566a9a9f600560006101000a81548173ffffffffffffffffffffffffffffffffffffffff021916908373ffffffffffffffffffffffffffffffffffffffff160217905550620004f1565b600033905090565b600073ffffffffffffffffffffffffffffffffffffffff168273ffffffffffffffffffffffffffffffffffffffff161415620001ac576040517f08c379a0000000000000000000000000000000000000000000000000000000008152600401620001a390620003a6565b60405180910390fd5b620001c0600083836200029e60201b60201c565b8060026000828254620001d49190620003f6565b92505081905550806000808473ffffffffffffffffffffffffffffffffffffffff1673ffffffffffffffffffffffffffffffffffffffff16815260200190815260200160002060008282546200022b9190620003f6565b925050819055508173ffffffffffffffffffffffffffffffffffffffff16600073ffffffffffffffffffffffffffffffffffffffff167fddf252ad1be2c89b69c2b068fc378daa952ba7f163c4a11628f55a4df523b3ef83604051620002929190620003c8565b60405180910390a35050565b505050565b828054620002b1906200045d565b90600052602060002090601f016020900481019282620002d5576000855562000321565b82601f10620002f057805160ff191683800117855562000321565b8280016001018555821562000321579182015b828111156200032057825182559160200191906001019062000303565b5b50905062000330919062000334565b5090565b5b808211156200034f57600081600090555060010162000335565b5090565b600062000362601f83620003e5565b91507f45524332303a206d696e7420746f20746865207a65726f2061646472657373006000830152602082019050919050565b620003a08162000453565b82525050565b60006020820190508181036000830152620003c18162000353565b9050919050565b6000602082019050620003df600083018462000395565b92915050565b600082825260208201905092915050565b6000620004038262000453565b9150620004108362000453565b9250827fffffffffffffffffffffffffffffffffffffffffffffffffffffffffffffffff0382111562000448576200044762000493565b5b828201905092915050565b6000819050919050565b600060028204905060018216806200047657607f821691505b602082108114156200048d576200048c620004c2565b5b50919050565b7f4e487b7100000000000000000000000000000000000000000000000000000000600052601160045260246000fd5b7f4e487b7100000000000000000000000000000000000000000000000000000000600052602260045260246000fd5b6115fd80620005016000396000f3fe608060405234801561001057600080fd5b50600436106100cf5760003560e01c80636e553f651161008c578063a3b921e211610066578063a3b921e21461023c578063a457c2d71461025a578063a9059cbb1461028a578063dd62ed3e146102ba576100cf565b80636e553f65146101be57806370a08231146101ee57806395d89b411461021e576100cf565b806306fdde03146100d4578063095ea7b3146100f257806318160ddd1461012257806323b872dd14610140578063313ce56714610170578063395093511461018e575b600080fd5b6100dc6102ea565b6040516100e99190611257565b60405180910390f35b61010c60048036038101906101079190610dfb565b61037c565b6040516101199190611221565b60405180910390f35b61012a61039a565b6040516101379190611359565b60405180910390f35b61015a60048036038101906101559190610dac565b6103a4565b6040516101679190611221565b60405180910390f35b6101786104a5565b6040516101859190611374565b60405180910390f35b6101a860048036038101906101a39190610dfb565b6104ae565b6040516101b59190611221565b60405180910390f35b6101d860048036038101906101d39190610e60565b61055a565b6040516101e59190611359565b60405180910390f35b61020860048036038101906102039190610d47565b610618565b6040516102159190611359565b60405180910390f35b610226610660565b6040516102339190611257565b60405180910390f35b6102446106f2565b604051610251919061123c565b60405180910390f35b610274600480360381019061026f9190610dfb565b610718565b6040516102819190611221565b60405180910390f35b6102a4600480360381019061029f9190610dfb565b61080c565b6040516102b19190611221565b60405180910390f35b6102d460048036038101906102cf9190610d70565b61082a565b6040516102e19190611359565b60405180910390f35b6060600380546102f9906114e1565b80601f0160208091040260200160405190810160405280929190818152602001828054610325906114e1565b80156103725780601f1061034757610100808354040283529160200191610372565b820191906000526020600020905b81548152906001019060200180831161035557829003601f168201915b5050505050905090565b60006103906103896108b1565b84846108b9565b6001905092915050565b6000600254905090565b60006103b1848484610a84565b6000600160008673ffffffffffffffffffffffffffffffffffffffff1673ffffffffffffffffffffffffffffffffffffffff16815260200190815260200160002060006103fc6108b1565b73ffffffffffffffffffffffffffffffffffffffff1673ffffffffffffffffffffffffffffffffffffffff1681526020019081526020016000205490508281101561047c576040517f08c379a0000000000000000000000000000000000000000000000000000000008152600401610473906112d9565b60405180910390fd5b610499856104886108b1565b85846104949190611401565b6108b9565b60019150509392505050565b60006012905090565b60006105506104bb6108b1565b8484600160006104c96108b1565b73ffffffffffffffffffffffffffffffffffffffff1673ffffffffffffffffffffffffffffffffffffffff16815260200190815260200160002060008873ffffffffffffffffffffffffffffffffffffffff1673ffffffffffffffffffffffffffffffffffffffff1681526020019081526020016000205461054b91906113ab565b6108b9565b6001905092915050565b6000600560009054906101000a900473ffffffffffffffffffffffffffffffffffffffff1673ffffffffffffffffffffffffffffffffffffffff166323b872dd3330866040518463ffffffff1660e01b81526004016105bb939291906111ea565b602060405180830381600087803b1580156105d557600080fd5b505af11580156105e9573d6000803e3d6000fd5b505050506040513d601f19601f8201168201806040525081019061060d9190610e37565b506000905092915050565b60008060008373ffffffffffffffffffffffffffffffffffffffff1673ffffffffffffffffffffffffffffffffffffffff168152602001908152602001600020549050919050565b60606004805461066f906114e1565b80601f016020809104026020016040519081016040528092919081815260200182805461069b906114e1565b80156106e85780601f106106bd576101008083540402835291602001916106e8565b820191906000526020600020905b8154815290600101906020018083116106cb57829003601f168201915b5050505050905090565b600560009054906101000a900473ffffffffffffffffffffffffffffffffffffffff1681565b600080600160006107276108b1565b73ffffffffffffffffffffffffffffffffffffffff1673ffffffffffffffffffffffffffffffffffffffff16815260200190815260200160002060008573ffffffffffffffffffffffffffffffffffffffff1673ffffffffffffffffffffffffffffffffffffffff168152602001908152602001600020549050828110156107e4576040517f08c379a00000000000000000000000000000000000000000000000000000000081526004016107db90611339565b60405180910390fd5b6108016107ef6108b1565b8585846107fc9190611401565b6108b9565b600191505092915050565b60006108206108196108b1565b8484610a84565b6001905092915050565b6000600160008473ffffffffffffffffffffffffffffffffffffffff1673ffffffffffffffffffffffffffffffffffffffff16815260200190815260200160002060008373ffffffffffffffffffffffffffffffffffffffff1673ffffffffffffffffffffffffffffffffffffffff16815260200190815260200160002054905092915050565b600033905090565b600073ffffffffffffffffffffffffffffffffffffffff168373ffffffffffffffffffffffffffffffffffffffff161415610929576040517f08c379a000000000000000000000000000000000000000000000000000000000815260040161092090611319565b60405180910390fd5b600073ffffffffffffffffffffffffffffffffffffffff168273ffffffffffffffffffffffffffffffffffffffff161415610999576040517f08c379a000000000000000000000000000000000000000000000000000000000815260040161099090611299565b60405180910390fd5b80600160008573ffffffffffffffffffffffffffffffffffffffff1673ffffffffffffffffffffffffffffffffffffffff16815260200190815260200160002060008473ffffffffffffffffffffffffffffffffffffffff1673ffffffffffffffffffffffffffffffffffffffff168152602001908152602001600020819055508173ffffffffffffffffffffffffffffffffffffffff168373ffffffffffffffffffffffffffffffffffffffff167f8c5be1e5ebec7d5bd14f71427d1e84f3dd0314c0f7b2291e5b200ac8c7c3b92583604051610a779190611359565b60405180910390a3505050565b600073ffffffffffffffffffffffffffffffffffffffff168373ffffffffffffffffffffffffffffffffffffffff161415610af4576040517f08c379a0000000000000000000000000000000000000000000000000000000008152600401610aeb906112f9565b60405180910390fd5b600073ffffffffffffffffffffffffffffffffffffffff168273ffffffffffffffffffffffffffffffffffffffff161415610b64576040517f08c379a0000000000000000000000000000000000000000000000000000000008152600401610b5b90611279565b60405180910390fd5b610b6f838383610d03565b60008060008573ffffffffffffffffffffffffffffffffffffffff1673ffffffffffffffffffffffffffffffffffffffff16815260200190815260200160002054905081811015610bf5576040517f08c379a0000000000000000000000000000000000000000000000000000000008152600401610bec906112b9565b60405180910390fd5b8181610c019190611401565b6000808673ffffffffffffffffffffffffffffffffffffffff1673ffffffffffffffffffffffffffffffffffffffff16815260200190815260200160002081905550816000808573ffffffffffffffffffffffffffffffffffffffff1673ffffffffffffffffffffffffffffffffffffffff1681526020019081526020016000206000828254610c9191906113ab565b925050819055508273ffffffffffffffffffffffffffffffffffffffff168473ffffffffffffffffffffffffffffffffffffffff167fddf252ad1be2c89b69c2b068fc378daa952ba7f163c4a11628f55a4df523b3ef84604051610cf59190611359565b60405180910390a350505050565b505050565b600081359050610d1781611582565b92915050565b600081519050610d2c81611599565b92915050565b600081359050610d41816115b0565b92915050565b600060208284031215610d5957600080fd5b6000610d6784828501610d08565b91505092915050565b60008060408385031215610d8357600080fd5b6000610d9185828601610d08565b9250506020610da285828601610d08565b9150509250929050565b600080600060608486031215610dc157600080fd5b6000610dcf86828701610d08565b9350506020610de086828701610d08565b9250506040610df186828701610d32565b9150509250925092565b60008060408385031215610e0e57600080fd5b6000610e1c85828601610d08565b9250506020610e2d85828601610d32565b9150509250929050565b600060208284031215610e4957600080fd5b6000610e5784828501610d1d565b91505092915050565b60008060408385031215610e7357600080fd5b6000610e8185828601610d32565b9250506020610e9285828601610d08565b9150509250929050565b610ea581611435565b82525050565b610eb481611447565b82525050565b610ec38161148a565b82525050565b6000610ed48261138f565b610ede818561139a565b9350610eee8185602086016114ae565b610ef781611571565b840191505092915050565b6000610f0f60238361139a565b91507f45524332303a207472616e7366657220746f20746865207a65726f206164647260008301527f65737300000000000000000000000000000000000000000000000000000000006020830152604082019050919050565b6000610f7560228361139a565b91507f45524332303a20617070726f766520746f20746865207a65726f20616464726560008301527f73730000000000000000000000000000000000000000000000000000000000006020830152604082019050919050565b6000610fdb60268361139a565b91507f45524332303a207472616e7366657220616d6f756e742065786365656473206260008301527f616c616e636500000000000000000000000000000000000000000000000000006020830152604082019050919050565b600061104160288361139a565b91507f45524332303a207472616e7366657220616d6f756e742065786365656473206160008301527f6c6c6f77616e63650000000000000000000000000000000000000000000000006020830152604082019050919050565b60006110a760258361139a565b91507f45524332303a207472616e736665722066726f6d20746865207a65726f20616460008301527f64726573730000000000000000000000000000000000000000000000000000006020830152604082019050919050565b600061110d60248361139a565b91507f45524332303a20617070726f76652066726f6d20746865207a65726f2061646460008301527f72657373000000000000000000000000000000000000000000000000000000006020830152604082019050919050565b600061117360258361139a565b91507f45524332303a2064656372656173656420616c6c6f77616e63652062656c6f7760008301527f207a65726f0000000000000000000000000000000000000000000000000000006020830152604082019050919050565b6111d581611473565b82525050565b6111e48161147d565b82525050565b60006060820190506111ff6000830186610e9c565b61120c6020830185610e9c565b61121960408301846111cc565b949350505050565b60006020820190506112366000830184610eab565b92915050565b60006020820190506112516000830184610eba565b92915050565b600060208201905081810360008301526112718184610ec9565b905092915050565b6000602082019050818103600083015261129281610f02565b9050919050565b600060208201905081810360008301526112b281610f68565b9050919050565b600060208201905081810360008301526112d281610fce565b9050919050565b600060208201905081810360008301526112f281611034565b9050919050565b600060208201905081810360008301526113128161109a565b9050919050565b6000602082019050818103600083015261133281611100565b9050919050565b6000602082019050818103600083015261135281611166565b9050919050565b600060208201905061136e60008301846111cc565b92915050565b600060208201905061138960008301846111db565b92915050565b600081519050919050565b600082825260208201905092915050565b60006113b682611473565b91506113c183611473565b9250827fffffffffffffffffffffffffffffffffffffffffffffffffffffffffffffffff038211156113f6576113f5611513565b5b828201905092915050565b600061140c82611473565b915061141783611473565b92508282101561142a57611429611513565b5b828203905092915050565b600061144082611453565b9050919050565b60008115159050919050565b600073ffffffffffffffffffffffffffffffffffffffff82169050919050565b6000819050919050565b600060ff82169050919050565b60006114958261149c565b9050919050565b60006114a782611453565b9050919050565b60005b838110156114cc5780820151818401526020810190506114b1565b838111156114db576000848401525b50505050565b600060028204905060018216806114f957607f821691505b6020821081141561150d5761150c611542565b5b50919050565b7f4e487b7100000000000000000000000000000000000000000000000000000000600052601160045260246000fd5b7f4e487b7100000000000000000000000000000000000000000000000000000000600052602260045260246000fd5b6000601f19601f8301169050919050565b61158b81611435565b811461159657600080fd5b50565b6115a281611447565b81146115ad57600080fd5b50565b6115b981611473565b81146115c457600080fd5b5056fea2646970667358221220f884d4e6c2411f3f10d8bc08ad340559077d70bbc51e7ef386c0ed15d0a3087864736f6c63430008000033",
  "immutableReferences": {},
  "source": "// SPDX-License-Identifier: Apache-2.0\npragma solidity ^0.8.0;\n\nimport \"./ERC20.sol\";\n\ncontract YearnVault is ERC20 {\n    ERC20 public underlyToken ;\n    mapping(address => uint256) private _balances;\n\n    mapping(address => mapping(address => uint256)) private _allowances;\n\n    constructor() ERC20(\"GameItem\", \"ITM\", 100) public { \n        underlyToken = ERC20(0x82184314D27B9e63Bf16AC2005059086566a9A9f);\n    }\n\n    function deposit(uint256 amount, address recipient) external returns (uint256) {\n        //require(underlyToken.balanceOf(msg.sender) > amount, \"balance not enough\");\n        underlyToken.transferFrom(msg.sender, address(this), amount);\n        return 0;\n    }\n\n    // function withdraw(\n    //     uint256,\n    //     address,\n    //     uint256\n    // ) external returns (uint256);\n\n    // // Returns the amount of underlying per each unit [1e18] of yearn shares\n    // function pricePerShare() external view returns (uint256);\n\n    // function governance() external view returns (address);\n\n    // function setDepositLimit(uint256) external;\n\n    // function totalSupply() external view returns (uint256);\n\n    // function totalAssets() external view returns (uint256);\n\n    // function apiVersion() external view returns (string memory);\n}\n",
  "sourcePath": "/Users/doubled/Desktop/code/YearnVault/contracts/YearnVault.sol",
  "compiler": {
    "name": "solc",
    "version": "0.8.0+commit.c7dfd78e.Emscripten.clang"
  },
  "schemaVersion": "3.2.0",
  "updatedAt": "2021-08-22T12:33:10.190Z",
  "devdoc": {
    "kind": "dev",
    "methods": {
      "allowance(address,address)": {
        "details": "See {IERC20-allowance}."
      },
      "approve(address,uint256)": {
        "details": "See {IERC20-approve}. Requirements: - `spender` cannot be the zero address."
      },
      "balanceOf(address)": {
        "details": "See {IERC20-balanceOf}."
      },
      "decimals()": {
        "details": "Returns the number of decimals used to get its user representation. For example, if `decimals` equals `2`, a balance of `505` tokens should be displayed to a user as `5,05` (`505 / 10 ** 2`). Tokens usually opt for a value of 18, imitating the relationship between Ether and Wei. This is the value {ERC20} uses, unless this function is overridden; NOTE: This information is only used for _display_ purposes: it in no way affects any of the arithmetic of the contract, including {IERC20-balanceOf} and {IERC20-transfer}."
      },
      "decreaseAllowance(address,uint256)": {
        "details": "Atomically decreases the allowance granted to `spender` by the caller. This is an alternative to {approve} that can be used as a mitigation for problems described in {IERC20-approve}. Emits an {Approval} event indicating the updated allowance. Requirements: - `spender` cannot be the zero address. - `spender` must have allowance for the caller of at least `subtractedValue`."
      },
      "increaseAllowance(address,uint256)": {
        "details": "Atomically increases the allowance granted to `spender` by the caller. This is an alternative to {approve} that can be used as a mitigation for problems described in {IERC20-approve}. Emits an {Approval} event indicating the updated allowance. Requirements: - `spender` cannot be the zero address."
      },
      "name()": {
        "details": "Returns the name of the token."
      },
      "symbol()": {
        "details": "Returns the symbol of the token, usually a shorter version of the name."
      },
      "totalSupply()": {
        "details": "See {IERC20-totalSupply}."
      },
      "transfer(address,uint256)": {
        "details": "See {IERC20-transfer}. Requirements: - `recipient` cannot be the zero address. - the caller must have a balance of at least `amount`."
      },
      "transferFrom(address,address,uint256)": {
        "details": "See {IERC20-transferFrom}. Emits an {Approval} event indicating the updated allowance. This is not required by the EIP. See the note at the beginning of {ERC20}. Requirements: - `sender` and `recipient` cannot be the zero address. - `sender` must have a balance of at least `amount`. - the caller must have allowance for ``sender``'s tokens of at least `amount`."
      }
    },
    "version": 1
  },
  "userdoc": {
    "kind": "user",
    "methods": {},
    "version": 1
  }
}